:0400000007EF00F016
:0A0008007282DBED0CF024EF16F01D
:10100000003738392F3435362A3132332D23303DED
:051010002B2569000022
:10101600000E0001E36F000EE46F000EE56F000E98
:10102600E66F30EF0AF0AC98AC94B89645C0D9FF9D
:1010360046C0DAFFDECF0EF0DECF0FF0DECF10F0C7
:10104600DECF11F0000EBBEC10F00EC020F00FC08A
:1010560021F010C022F011C023F0000E1C6E240EE9
:101066001D6EF40E1E6E4A0E1F6EEEEC0EF01CC0C8
:10107600E7F01DC0E8F01EC0E9F01FC0EAF0000E60
:10108600206E000E216E800E226E420E236EE7C089
:101096001CF0E8C01DF0E9C01EF0EAC01FF0EEEC3F
:1010A6000EF01CC035F01DC036F01EC037F01FC054
:1010B60038F0000E396E000E3A6E800E3B6EBF0E93
:1010C6003C6E7BEC0AF035C0E3F036C0E4F037C086
:1010D600E5F038C0E6F05BEF0AF0AC98AC84B89661
:1010E60045C0D9FF46C0DAFFDECF0EF0DECF0FF0E7
:1010F600DECF10F0DECF11F0000EBBEC10F00EC00C
:1011060020F00FC021F010C022F011C023F0000E15
:101116001C6E240E1D6EF40E1E6E4A0E1F6EEEEC35
:101126000EF01CC0E7F01DC0E8F01EC0E9F01FC0BD
:10113600EAF0000E206E000E216E800E226E410E29
:10114600236EE7C01CF0E8C01DF0E9C01EF0EAC03F
:101156001FF0EEEC0EF01CC035F01DC036F01EC0C0
:1011660037F01FC038F0000E396E000E3A6E800E52
:101176003B6EBF0E3C6E7BEC0AF035C0E3F036C02A
:10118600E4F037C0E5F038C0E6F05BEF0AF0AC9863
:10119600AC94B88645C0D9FF46C0DAFFDECF0EF064
:1011A600DECF0FF0DECF10F0DECF11F0000EBBEC7D
:1011B60010F00EC020F00FC021F010C022F011C0B8
:1011C60023F0000E1C6E240E1D6EF40E1E6E4A0ECB
:1011D6001F6EEEEC0EF01CC0E7F01DC0E8F01EC05E
:1011E600E9F01FC0EAF0000E206E000E216E800EA0
:1011F600226E410E236EE7C01CF0E8C01DF0E9C068
:101206001EF0EAC01FF0EEEC0EF01CC035F01DC05B
:1012160036F01EC037F01FC038F0000E396E000ED3
:101226003A6E800E3B6EBF0E3C6E7BEC0AF035C00C
:10123600E3F036C0E4F037C0E5F038C0E6F05BEF27
:101246000AF0AC98AC84B88645C0D9FF46C0DAFF30
:10125600DECF0EF0DECF0FF0DECF10F0DECF11F0D6
:10126600000EBBEC10F00EC020F00FC021F010C035
:1012760022F011C023F0000E1C6E240E1D6EF40E1B
:101286001E6E4A0E1F6EEEEC0EF01CC0E7F01DC07F
:10129600E8F01EC0E9F01FC0EAF0000E206E000E56
:1012A600216E800E226E400E236EE7C01CF0E8C051
:1012B6001DF0E9C01EF0EAC01FF0EEEC0EF01CC0F7
:1012C60035F01DC036F01EC037F01FC038F0000ED6
:1012D600396E000E3A6E800E3B6EBF0E3C6E7BEC96
:1012E6000AF035C0E3F036C0E4F037C0E5F038C0A8
:1012F600E6F05BEF0AF0AC88B89645C0D9FF46C069
:10130600DAFFDECF0EF0DECF0FF0DECF10F0DECF4D
:1013160011F0000EBBEC10F00EC020F00FC021F053
:1013260010C022F011C023F0000E1C6E240E1D6E9C
:10133600F40E1E6E4A0E1F6EEEEC0EF01CC0E7F0A9
:101346001DC0E8F01EC0E9F01FC0EAF0000E206ED6
:10135600000E216E800E226E400E236EE7C01CF03A
:10136600E8C01DF0E9C01EF0EAC01FF0EEEC0EF07A
:101376001CC035F01DC036F01EC037F01FC038F057
:10138600000E396E000E3A6E800E3B6EBF0E3C6E3E
:101396007BEC0AF035C0E3F036C0E4F037C0E5F088
:1013A60038C0E6F05BEF0AF0AC88B88645C0D9FFD6
:1013B60046C0DAFFDECF0EF0DECF0FF0DECF10F044
:1013C600DECF11F0000EBBEC10F00EC020F00FC007
:1013D60021F010C022F011C023F0000E1C6E240E66
:1013E6001D6EF40E1E6E4A0E1F6EEEEC0EF01CC045
:1013F600E7F01DC0E8F01EC0E9F01FC0EAF0000EDD
:10140600206E000E216E800E226E400E236EE7C007
:101416001CF0E8C01DF0E9C01EF0EAC01FF0EEECBB
:101426000EF01CC035F01DC036F01EC037F01FC0D0
:1014360038F0000E396E000E3A6E800E3B6EBF0E0F
:101446003C6E7BEC0AF035C0E3F036C0E4F037C002
:10145600E5F038C0E6F05BEF0AF020EE04F0455008
:10146600D9264650DA22DF50E16FE26BE251000ADC
:10147600D8B440EF0AF05BEF0AF0E151000AD8B4A5
:1014860016EF08F0010AD8B470EF08F0030AD8B4D2
:10149600CAEF08F0010AD8B424EF09F0070AD8B455
:1014A6007EEF09F0010AD8B4D7EF09F05BEF0AF036
:1014B600E3C00EF0E4C00FF0E5C010F0E6C011F096
:1014C6009FEC13F00E50AF6EE3C00EF0E4C00FF0C9
:1014D600E5C010F0E6C011F09FEC13F00FC00EF05F
:1014E60010C00FF011C010F0116A0E50B06E12004D
:1014F6003850800B416E38503824436E37AE86EF35
:101506000AF088EF0AF089EF0AF043804350D8B416
:101516008FEF0AF091EF0AF0A6EF0AF04328D8A45D
:1015260097EF0AF099EF0AF0A1EF0AF0000E356E78
:10153600000E366E000E376E000E386E378E000EB9
:10154600386EAEEF0AF0000E356E000E366E000EE7
:10155600376E000E386E3C50800B426E415042187A
:10156600D8B4B8EF0AF0BAEF0AF0BBEF0AF0418C34
:101576003C503C24426E3BAEC3EF0AF0C5EF0AF086
:10158600C6EF0AF042804250D8B4CCEF0AF0CEEF54
:101596000AF0E3EF0AF04228D8A4D4EF0AF0D6EF17
:1015A6000AF0DEEF0AF0000E396E000E3A6E000EFB
:1015B6003B6E000E3C6E3B8E000E3C6EEBEF0AF06F
:1015C600000E396E000E3A6E000E3B6E000E3C6E3B
:1015D6004350425CD8B0F2EF0AF0F4EF0AF01BEF8A
:1015E6000BF041ACF9EF0AF0FBEF0AF0FDEF0AF061
:1015F600800E411A43C044F042C043F044C042F05A
:1016060035C044F039C035F044C039F036C044F036
:101616003AC036F044C03AF037C044F03BC037F029
:1016260044C03BF038C044F03CC038F044C03CF005
:10163600000E446E435042C03DF03E6A3D5E000ED1
:101646003E5A3EBE30EF0BF03E5009E11A0E3D5CAD
:10165600D8A030EF0BF032EF0BF069EF0BF03550FE
:10166600361037103810D8A43BEF0BF03EEF0BF0D6
:10167600010E3FEF0BF0000E446E000E356E000EAD
:10168600366E000E376E000E386E42C043F072EFB3
:101696000BF044A051EF0BF053EF0BF059EF0BF0AA
:1016A600D89044300109446E5BEF0BF0D890443279
:1016B60035A060EF0BF062EF0BF063EF0BF0448E9A
:1016C60038343832373236323532432A4250435C68
:1016D600D8A070EF0BF072EF0BF04CEF0BF041BCA3
:1016E60077EF0BF079EF0BF0B9EF0BF04350D8A47E
:1016F6007FEF0BF081EF0BF08BEF0BF0000E356EEA
:10170600000E366E000E376E000E386EDAEF0CF0F5
:10171600395035263A5036223B5037223C50382233
:1017260038A098EF0BF09AEF0BF046EF0CF044A0C0
:101736009FEF0BF0A1EF0BF0A7EF0BF0D890443022
:101746000109446EA9EF0BF0D890443235A0AEEFF4
:101756000BF0B0EF0BF0B1EF0BF0448E38343832AB
:10176600373236323532432A46EF0CF03950355C83
:101776003A5036583B5037583850800A3D6E3C50E8
:10178600800A3D58D8B0CAEF0BF0CCEF0BF0F7EF5C
:101796000BF03550395C3D6E36503A583E6E375038
:1017A6003B583F6E38503C58406EFF0E3D24356E18
:1017B600FF0E3E20366EFF0E3F20376EFF0E402096
:1017C600386E800E411A446C4450D8A4EDEF0BF0ED
:1017D600EFEF0BF0FFEF0BF0010E3526000E362271
:1017E60037223822FFEF0BF03950355E3A50365A21
:1017F6003B50375A3C50385A35503610371038104F
:10180600D8A408EF0CF00AEF0CF03FEF0CF04450B0
:10181600D8A410EF0CF012EF0CF03FEF0CF0000E16
:10182600356E000E366E000E376E000E386EDAEF2D
:101836000CF0D890353636363736383644AE26EF85
:101846000CF028EF0CF029EF0CF0358044A02EEFB9
:101856000CF030EF0CF034EF0CF0D880443636EF55
:101866000CF0D89044364350D8B43CEF0CF03EEF21
:101876000CF03FEF0CF0430637AE44EF0CF046EFAA
:101886000CF01CEF0CF0000E426E44AE4DEF0CF067
:101896004FEF0CF067EF0CF044C03DF07F0E3D16A5
:1018A600D8B458EF0CF05AEF0CF05EEF0CF0010EC6
:1018B600426E67EF0CF035A063EF0CF065EF0CF0AD
:1018C60067EF0CF05AEF0CF04250D8B46DEF0CF005
:1018D6006FEF0CF09AEF0CF0010E3526000E362253
:1018E6003722382238A07AEF0CF07CEF0CF09AEF12
:1018F6000CF035C03DF036C03EF037C03FF038C082
:1019060040F0403440323F323E323D323DC035F049
:101916003EC036F03FC037F040C038F04328D8B458
:1019260097EF0CF099EF0CF09AEF0CF0432A43284E
:10193600D8B4A0EF0CF0A2EF0CF0AAEF0CF04350D5
:10194600D8A4A8EF0CF0AAEF0CF0BCEF0CF0000E38
:10195600356E000E366E000E376E000E386E435032
:10196600D8A4B8EF0CF0BAEF0CF0BCEF0CF0000EF8
:10197600416E43A0C1EF0CF0C3EF0CF0C6EF0CF0C4
:10198600378EC7EF0CF0379ED8904330386E41AE95
:10199600CFEF0CF0D1EF0CF0D2EF0CF0388E35C053
:1019A60035F036C036F037C037F038C038F01200A0
:1019B6000600FACF0AF0FBCF0BF0D9CF0CF0DACF46
:1019C6000DF0F2A8E9EF0CF0EBEF0CF0F4EF0CF0F1
:1019D600F2A2F0EF0CF0F2EF0CF0F4EF0CF0F9ECF1
:1019E60017F0F0A6F9EF0CF0FBEF0CF004EF0DF09A
:1019F600F0A000EF0DF002EF0DF004EF0DF0F7ECA4
:101A060017F0F0A809EF0DF00BEF0DF014EF0DF045
:101A1600F0A210EF0DF012EF0DF014EF0DF0F5EC53
:101A260017F0F2A619EF0DF01BEF0DF036EF0DF0E3
:101A3600F2A020EF0DF022EF0DF036EF0DF081A8A9
:101A460027EF0DF029EF0DF036EF0DF07104D8A455
:101A56002FEF0DF031EF0DF036EF0DF0000E716E39
:101A6600000EBDEC17F0F2A63BEF0DF03DEF0DF0CA
:101A760058EF0DF0F2A042EF0DF044EF0DF058EFE5
:101A86000DF081B849EF0DF04BEF0DF058EF0DF06A
:101A96007150D8A451EF0DF053EF0DF058EF0DF043
:101AA600010E716E010EBDEC17F0F2A65DEF0DF0A2
:101AB6005FEF0DF07AEF0DF0F2A064EF0DF066EF38
:101AC6000DF07AEF0DF081AA6BEF0DF06DEF0DF0D2
:101AD6007AEF0DF07004D8A473EF0DF075EF0DF0EA
:101AE6007AEF0DF0000E706E000EB0EC17F0F2A655
:101AF6007FEF0DF081EF0DF09CEF0DF0F2A086EF79
:101B06000DF088EF0DF09CEF0DF081BA8DEF0DF022
:101B16008FEF0DF09CEF0DF07050D8A495EF0DF0FF
:101B260097EF0DF09CEF0DF0010E706E010EB0EC0C
:101B360017F0F2A6A1EF0DF0A3EF0DF0BEEF0DF03A
:101B4600F2A0A8EF0DF0AAEF0DF0BEEF0DF081ACFC
:101B5600AFEF0DF0B1EF0DF0BEEF0DF06F04D8A4AE
:101B6600B7EF0DF0B9EF0DF0BEEF0DF0000E6F6E92
:101B7600000EA3EC17F0F2A6C3EF0DF0C5EF0DF0C3
:101B8600E0EF0DF0F2A0CAEF0DF0CCEF0DF0E0EFB4
:101B96000DF081BCD1EF0DF0D3EF0DF0E0EF0DF0BD
:101BA6006F50D8A4D9EF0DF0DBEF0DF0E0EF0DF09C
:101BB600010E6F6E010EA3EC17F0F2A6E5EF0DF025
:101BC600E7EF0DF002EF0EF0F2A0ECEF0DF0EEEF06
:101BD6000DF002EF0EF081AEF3EF0DF0F5EF0DF024
:101BE60002EF0EF06E04D8A4FBEF0DF0FDEF0DF042
:101BF60002EF0EF0000E6E6E000E96EC17F0F2A6D7
:101C060007EF0EF009EF0EF024EF0EF0F2A00EEF44
:101C16000EF010EF0EF024EF0EF081BE15EF0EF071
:101C260017EF0EF024EF0EF06E50D8A41DEF0EF055
:101C36001FEF0EF024EF0EF0010E6E6E010E96EC05
:101C460017F09DAC29EF0EF02BEF0EF034EF0EF0EF
:101C56009EAC30EF0EF032EF0EF034EF0EF0FFECEC
:101C660017F0F2AA39EF0EF03BEF0EF044EF0EF04C
:101C7600F2A440EF0EF042EF0EF044EF0EF0E7EC68
:101C860017F09DA049EF0EF04BEF0EF054EF0EF05B
:101C96009EA050EF0EF052EF0EF054EF0EF0E1EC76
:101CA60017F09DA259EF0EF05BEF0EF064EF0EF009
:101CB6009EA260EF0EF062EF0EF064EF0EF0EDEC18
:101CC60017F0A0A269EF0EF06BEF0EF074EF0EF0B6
:101CD600A1A270EF0EF072EF0EF074EF0EF0DBECD7
:101CE60017F09DA879EF0EF07BEF0EF084EF0EF063
:101CF6009EA880EF0EF082EF0EF084EF0EF06DECF2
:101D060017F09DAA89EF0EF08BEF0EF094EF0EF010
:101D16009EAA90EF0EF092EF0EF094EF0EF002EC0A
:101D260018F09DA699EF0EF09BEF0EF0A4EF0EF0C3
:101D36009EA6A0EF0EF0A2EF0EF0A4EF0EF0F1ECCF
:101D460017F0A0A6A9EF0EF0ABEF0EF0B4EF0EF071
:101D5600A1A6B0EF0EF0B2EF0EF0B4EF0EF0F3EC7A
:101D660017F09DA6B9EF0EF0BBEF0EF0C4EF0EF024
:101D76009EA6C0EF0EF0C2EF0EF0C4EF0EF001EC1F
:101D860018F09DA4C9EF0EF0CBEF0EF0D4EF0EF0D5
:101D96009EA4D0EF0EF0D2EF0EF0D4EF0EF0FDECD5
:101DA60017F0A0A0D9EF0EF0DBEF0EF0E4EF0EF087
:101DB600A1A0E0EF0EF0E2EF0EF0E4EF0EF0FBEC88
:101DC60017F00DC0DAFF0CC0D9FF0BC0FBFF0AC02D
:101DD600FAFF729211001F50800B2C6E1F501F24A9
:101DE600336E1EAEF9EF0EF0FBEF0EF0FCEF0EF0C9
:101DF60033803350D8B402EF0FF004EF0FF019EF31
:101E06000FF03328D8A40AEF0FF00CEF0FF014EF01
:101E16000FF0000E1C6E000E1D6E000E1E6E000EE4
:101E26001F6E1E8E000E1F6E21EF0FF0000E1C6E31
:101E3600000E1D6E000E1E6E000E1F6E2350800BD0
:101E46002C1A23502324346E22AE2CEF0FF02EEFE3
:101E56000FF02FEF0FF034803450D8B435EF0FF079
:101E660037EF0FF04CEF0FF03428D8A43DEF0FF00A
:101E76003FEF0FF047EF0FF0000E206E000E216EC1
:101E8600000E226E000E236E228E000E236E54EF7D
:101E96000FF0000E206E000E216E000E226E000E58
:101EA600236E2050211022102310D8A45DEF0FF0CE
:101EB6005FEF0FF077EF0FF0000E1C6E000E1D6E39
:101EC600000E1E6E000E1F6E800E1E127F0E1F125B
:101ED6002C501F121CC01CF01DC01DF01EC01EF091
:101EE6001FC01FF0BAEF10F03350D8A47DEF0FF0EB
:101EF6007FEF0FF089EF0FF0000E1C6E000E1D6EC7
:101F0600000E1E6E000E1F6EBAEF10F0345033C076
:101F160024F0256A245E000E255A7F0E24242D6E99
:101F2600000E25202E6E1CC028F01DC029F01EC0F4
:101F36002AF01FC02BF0000E1C6E000E1D6E000E48
:101F46001E6E000E1F6E000E2F6E000E306E000EFF
:101F5600316E000E326E000E346EEAEF0FF0345022
:101F6600D8B4B8EF0FF0BAEF0FF0D1EF0FF0D8906A
:101F7600283629362A362B36D8901C361D361E367C
:101F86001F3632AEC9EF0FF0CBEF0FF0CCEF0FF0EC
:101F96001C80D8902F363036313632362050285CA9
:101FA6002150295822502A5823502B58D8A0DEEF0A
:101FB6000FF0E0EF0FF0E9EF0FF0328C2050285EC3
:101FC6002150295A22502A5A23502B5A342A190EA4
:101FD6003464F0EF0FF0F2EF0FF0B2EF0FF028508D
:101FE60029102A102B10D8B4FBEF0FF0FDEF0FF0DD
:101FF60015EF10F02F8015EF10F0D8901C361D3617
:102006001E361F3632AE0AEF10F00CEF10F00DEF51
:1020160010F01C80D8902F363036313632362D06E9
:10202600D8A02E061EAE1AEF10F01CEF10F000EF2F
:1020360010F0000E346E32AE23EF10F025EF10F0E4
:1020460049EF10F0FF0E2F14246EFF0E3014256E8C
:10205600FF0E3114266E7F0E3214276E2450251083
:1020660026102710D8B43AEF10F03CEF10F040EFEE
:1020760010F0010E346E49EF10F01CA045EF10F081
:1020860047EF10F049EF10F03CEF10F03450D8B4A1
:102096004FEF10F051EF10F075EF10F0010E1C2607
:1020A600000E1D221E221F221FA05CEF10F05EEF05
:1020B60010F075EF10F01CC024F01DC025F01EC0F6
:1020C60026F01FC027F02734273226322532243245
:1020D60024C01CF025C01DF026C01EF027C01FF02E
:1020E6002D4A2E2A2EBE80EF10F02E5008E12D2804
:1020F600D8A080EF10F082EF10F08DEF10F0000EF8
:102106002E6E2D68000E1C6E000E1D6E000E1E6ECD
:10211600000E1F6E2EBE9AEF10F02E5006E12D0413
:10212600D8B098EF10F09AEF10F0A8EF10F0000E6C
:102136002E6E000E2D6E000E1C6E000E1D6E000E15
:102146001E6E000E1F6E000E2C6E2DC033F033A0D7
:10215600AFEF10F0B1EF10F0B4EF10F01E8EB5EF48
:1021660010F01E9ED89033301F6E6BEF0FF01200EA
:10217600166E1650D8B4C2EF10F0C4EF10F0E6EFAA
:1021860010F011BECBEF10F0C9EF10F0E6EF10F033
:102196000EC012F00FC013F010C014F011C015F0ED
:1021A600121E131E141E151E122A000E13221422AE
:1021B600152212C018F013C019F014C01AF015C079
:1021C6001BF0EEEF10F00EC018F00FC019F010C0A3
:1021D6001AF011C01BF00E500F1010101110D8A4D9
:1021E600F7EF10F0F9EF10F003EF11F0000E0E6E9E
:1021F600000E0F6E000E106E000E116E94EF11F0B1
:10220600960E176E0DEF11F0172AD8901B321A3260
:1022160019321832000E1814126E000E1914136EAD
:10222600000E1A14146EFE0E1B14156E12501310A7
:1022360014101510D8A422EF11F024EF11F007EFB7
:1022460011F032EF11F0172A010E1826000E19228E
:102256001A221B22D8901B321A3219321832000E5B
:102266001814126E000E1914136E000E1A14146E42
:10227600FF0E1B14156E1250131014101510D8A44F
:1022860047EF11F049EF11F026EF11F051EF11F081
:102296001706D890183619361A361B361ABE56EF58
:1022A60011F058EF11F060EF11F0020E17605EEFBB
:1022B60011F060EF11F04BEF11F017B065EF11F070
:1022C60067EF11F068EF11F01A9ED890173217C019
:1022D60012F0136A146A156A12C015F0146A136AAA
:1022E600126A125018121350191214501A1215505D
:1022F6001B121650D8B482EF11F084EF11F08CEF58
:1023060011F011BE8BEF11F089EF11F08CEF11F087
:102316001B8E18C00EF019C00FF01AC010F01BC0AB
:1023260011F01200000E5B6E010E0E6E030EF7EC3E
:1023360016F00001EE6FB00E186E000E196E66C034
:102346000EF00F6A000E116E0A0E106E90EC14F06D
:102356000E501A6EA4EC15F00001EE6F0D0E1C6EF9
:10236600FC0EE82EFED71C2EFCD7020E0E6E030EB8
:10237600F7EC16F00001EE6FB00E186E000E196E37
:1023860066C00EF00F6A000E116E0A0E106E4CEC4F
:1023960015F00E501A6EA4EC15F00001EE6F0D0E3E
:1023A6001C6EFC0EE82EFED71C2EFCD7040E0E6EFD
:1023B600030EF7EC16F00001EE6FB00E186E000E6D
:1023C600196E65C00EF00F6A000E116E0A0E106EC1
:1023D60090EC14F00E501A6EA4EC15F00001EE6F9E
:1023E6000D0E1C6EFC0EE82EFED71C2EFCD7080E1A
:1023F6000E6E030EF7EC16F00001EE6FB00E186EBF
:10240600000E196E65C00EF00F6A000E116E0A0EF0
:10241600106E4CEC15F00E501A6EA4EC15F000017F
:10242600EE6F0D0E1C6EFC0EE82EFED71C2EFCD792
:10243600100E0E6E030EF7EC16F00001EE6FB00EE6
:10244600186E000E196E64C00EF00F6A000E116E43
:102456000A0E106E90EC14F00E501A6EA4EC15F0E5
:102466000001EE6F0D0E1C6EFC0EE82EFED71C2E24
:10247600FCD7200E0E6E030EF7EC16F00001EE6F81
:10248600B00E186E000E196E64C00EF00F6A000EC4
:10249600116E0A0E106E4CEC15F00E501A6EA4EC6E
:1024A60015F00001EE6F0D0E1C6EFC0EE82EFED729
:1024B6001C2EFCD75B2A210E5B6464EF12F066EFDC
:1024C60012F097EF11F01200010E166E0E500F105B
:1024D600D8B470EF12F072EF12F083EF12F00EC064
:1024E600D9FF0FC0DAFFDF30E832E832070B106E93
:1024F600070E106481EF12F083EF12F0E6EF12F090
:10250600000E166E07EF13F00EC0D9FF0FC0DAFFEC
:10251600DF30E832E832070B106E010E116E102A1A
:1025260097EF12F0D8901136102E95EF12F0115049
:10253600FF0A126E0EC0D9FF0FC0DAFFDF50070B7D
:10254600136E1350020D940EF324D96E000EF42070
:10255600DA6EDECF14F0DDCF15F014C0D9FF15C04A
:10256600DAFF1250DF1607EF13F00EC0D9FF0FC0C7
:10257600DAFFDF30E832E832070B106E010E116E1B
:10258600102AC8EF12F0D8901136102EC6EF12F0AE
:102596000EC0D9FF0FC0DAFFDF50070B126E1250C4
:1025A600020D940EF324D96E000EF420DA6EDECFFF
:1025B60013F0DDCF14F013C0D9FF14C0DAFF1150A9
:1025C600DF1207EF13F00EC0D9FF0FC0DAFFDFBC32
:1025D600EFEF12F0F2EF12F0010EF3EF12F0000E31
:1025E600106E116A1150000AD8B4FCEF12F083EF96
:1025F60012F01050000AD8B487EF12F0010AD8B4CE
:10260600B8EF12F083EF12F016501200010E176E9B
:102616000E500F10D8B412EF13F014EF13F025EF8D
:1026260013F00EC0D9FF0FC0DAFFDF30E832E83210
:10263600070B116E070E116423EF13F025EF13F04D
:1026460088EF13F0000E176E9DEF13F00EC0D9FF42
:102656000FC0DAFFDF30E832E832070B116E010EE9
:10266600126E112A39EF13F0D8901236112E37EF69
:1026760013F01250FF0A136E0EC0D9FF0FC0DAFF17
:10268600DF50070B146E1450020D8A0EF324D96E18
:10269600000EF420DA6EDECF15F0DDCF16F015C091
:1026A600D9FF16C0DAFF1350DF169DEF13F00EC0E8
:1026B600D9FF0FC0DAFFDF30E832E832070B116EC0
:1026C600010E126E112A6AEF13F0D8901236112EEF
:1026D60068EF13F00EC0D9FF0FC0DAFFDF50070B0B
:1026E600136E1350020D8A0EF324D96E000EF420D9
:1026F600DA6EDECF14F0DDCF15F014C0D9FF15C0A9
:10270600DAFF1250DF129DEF13F01050116E126AAD
:102716001250000AD8B492EF13F025EF13F01150BF
:10272600000AD8B429EF13F0010AD8B45AEF13F00F
:1027360025EF13F01750120010341134176E17508E
:10274600D8A4A8EF13F0AAEF13F0B4EF13F0000E1D
:102756000E6E000E0F6E000E106E000E116E21EF43
:1027660014F00EC012F00FC013F010C014F011C018
:1027760015F0200EC4EF13F0D89015321432133230
:102786001232E82EBFEF13F01250166E108EFF0EA7
:102796000E16FF0E0F16FF0E1016000E1116960ED1
:1027A600175E17BEDBEF13F0D9EF13F0F1EF13F05E
:1027B6001750800A970FD8B0E3EF13F0E5EF13F048
:1027C600E7EF13F0AAEF13F0D890113210320F3260
:1027D6000E32173EE7EF13F009EF14F01F0E1764E1
:1027E600F7EF13F0F9EF13F001EF14F0AAEF13F07F
:1027F600D8900E360F361036113617061750D8A455
:1028060007EF14F009EF14F0FBEF13F01650D8B4ED
:102816000FEF14F011EF14F019EF14F0111E101E43
:102826000F1E0E6C000E0F22102211220EC00EF08B
:102836000FC00FF010C010F011C011F0120020EE02
:1028460008F00E50D9260F50DA22DFA02DEF14F033
:102856002FEF14F08FEF14F0AB8820EE0CF00E5033
:10286600D9260F50DA22DECFBFF0DDCFC0F020EE42
:102876000EF00E50D9260F50DA22DECFBDF0DDCF96
:10288600BEF020EE10F00E50D9260F50DA22DECF21
:10289600BBF0DDCFBCF020EE08F00E50D9260F506D
:1028A600DA22DFA259EF14F05BEF14F061EF14F0B7
:1028B6009D8A9D8AF28EF28C6FEF14F020EE08F05E
:1028C6000E50D9260F50DA22DFB26CEF14F06EEFFD
:1028D60014F06FEF14F09D9A20EE08F00E50D926F2
:1028E6000F50DA22DFA47AEF14F07CEF14F07FEFBA
:1028F60014F0AB8C8FEF14F020EE08F00E50D926B2
:102906000F50DA22DFB48AEF14F08CEF14F08FEF59
:1029160014F0AB9C8FEF14F01200000E136E11BE74
:1029260099EF14F097EF14F09FEF14F0106C111E4E
:10293600D8B0112A010E136E0FBEA6EF14F0A4EF45
:1029460014F0ACEF14F00E6C0F1ED8B00F2A010E67
:10295600131A000E156E000E146E10501110D8B416
:10296600B7EF14F0B9EF14F0E1EF14F0010E126EA8
:10297600C1EF14F0D89010361136122A11AEC6EFF8
:1029860014F0C8EF14F0BDEF14F0D89014361536D5
:1029960010500E5C11500F58D8A0D4EF14F0D6EF9B
:1029A60014F0DBEF14F010500E5E11500F5A148025
:1029B600D89011321032122EC8EF14F01350D8B43A
:1029C600E7EF14F0E9EF14F0EDEF14F0146C151EB8
:1029D600D8B0152A14C00EF015C00FF0120020EE64
:1029E60006F00E50D9260F50DA22DFA0FDEF14F0C4
:1029F600FFEF14F04BEF15F0AC8A20EE0AF00E5004
:102A0600D9260F50DA22DECF47F0DDCF48F020EE90
:102A160006F00E50D9260F50DA22DFA215EF15F078
:102A260017EF15F01DEF15F09D889D88F28EF28C3C
:102A36002BEF15F020EE06F00E50D9260F50DA22B5
:102A4600DFB228EF15F02AEF15F02BEF15F09D9861
:102A560020EE06F00E50D9260F50DA22DFA436EF0C
:102A660015F038EF15F03BEF15F0AC8C4BEF15F089
:102A760020EE06F00E50D9260F50DA22DFB446EFCC
:102A860015F048EF15F04BEF15F0AC9C4BEF15F039
:102A96001200000E136E0FBE55EF15F053EF15F032
:102AA6005BEF15F00E6C0F1ED8B00F2A010E136ED9
:102AB60011BE62EF15F060EF15F066EF15F0106CC1
:102AC600111ED8B0112A10501110D8B46DEF15F0A0
:102AD6006FEF15F093EF15F0010E126E77EF15F00C
:102AE600D89010361136122A11AE7CEF15F07EEF13
:102AF60015F073EF15F010500E5C11500F58D8A05A
:102B060087EF15F089EF15F08DEF15F010500E5E7A
:102B160011500F5AD89011321032122E7EEF15F046
:102B26001350D8B499EF15F09BEF15F09FEF15F001
:102B36000E6C0F1ED8B00F2A0EC00EF00FC00FF08D
:102B4600120018501910D8A4ABEF15F0ADEF15F020
:102B5600B9EF15F0090E1A64B3EF15F0B5EF15F0DD
:102B6600B9EF15F0000E1B6EECEF15F018C00EF065
:102B760019C00FF01A50010B106E09EC13F01B6E02
:102B8600010E18240E6E000E19200F6ED8901A3002
:102B9600010B106E09EC13F01B6E020E18240E6E5C
:102BA600000E19200F6E1A40E8423F0B010B106E03
:102BB60009EC13F01B6E030E18240E6E000E19207E
:102BC6000F6E1A38E8461F0B010B106E09EC13F056
:102BD6001B6E1B50120018501910D8B4F5EF15F0E3
:102BE600F7EF15F008EF16F018C0D9FF19C0DAFF95
:102BF600DF30E832E832070B1A6E070E1A6406EF6A
:102C060016F008EF16F00CEF16F0000E1B6E22EF12
:102C160016F018C00EF019C00FF067EC12F01B6E1C
:102C260018C00EF019C00FF018C0D9FF19C0DAFF8E
:102C3600000EDFBE010E106E09EC13F01B6E1B506A
:102C46001200740EF66E2E0EF76E000EF86E00EE83
:102C560080F010EE35F00900F5CFEEFFE550E150BB
:102C6600FAE1A80EF66E2F0EF76E000EF86E00EE65
:102C760064F010EE0EF00900F5CFEEFFE550E150DE
:102C8600FAE100EEB5F02C0EEE6AE806FDE100EE84
:102C960047F01D0EEE6AE806FDE1729072920001A1
:102CA600CAEF17F01C501D10D8A45CEF16F05EEFAB
:102CB60016F062EF16F0000E1E6E84EF16F01CC0C2
:102CC60018F01DC019F0EEEC15F01E6E010E1C2456
:102CD600186E000E1D20196EEEEC15F01E6E020E1B
:102CE6001C24186E000E1D20196EEEEC15F01E6EDB
:102CF600030E1C24186E000E1D20196EEEEC15F046
:102D06001E6E1E5012000001EB51EC11D8A48EEF7E
:102D160016F090EF16F094EF16F0000EED6FADEF93
:102D260016F0AB9E948E948CEBC045F0ECC046F04A
:102D36000BEC08F0EBC00EF0ECC00FF0F2EC14F068
:102D4600EBC00EF0ECC00FF022EC14F0AB8E010ECF
:102D56000001ED6FED511200642A3C0E6418D8A4F0
:102D6600B7EF16F0B9EF16F0BCEF16F0652A000EB5
:102D7600646E3C0E6518D8A4C3EF16F0C5EF16F0C6
:102D8600C8EF16F0662A000E656E180E6618D8A4EF
:102D9600CFEF16F0D1EF16F0D3EF16F0000E666EF9
:102DA6001200126E010E116E040E1264DDEF16F0A3
:102DB600DFEF16F0E3EF16F0000E116EF5EF16F0EA
:102DC6001250020D940EF324D96E000EF420DA6E22
:102DD600DECF0FF0DDCF10F00FC0D9FF10C0DAFF45
:102DE6000EC0DFFF11501200126E010E116E040E9E
:102DF600126400EF17F002EF17F006EF17F0000E5F
:102E0600116E18EF17F01250020D8A0EF324D96EC8
:102E1600000EF420DA6EDECF0FF0DDCF10F00FC01B
:102E2600D9FF10C0DAFF0EC0DFFF11501200000EEE
:102E3600056E30EF17F09EAA23EF17F025EF17F077
:102E46001EEF17F0AECF04F001C0D9FF02C0DAFFC3
:102E560004C0DFFF014A022A052A0350055CD8A0F8
:102E660037EF17F039EF17F01EEF17F01200800F4B
:102E7600810F820F830F840F890F8A0F8B0F8C0FA0
:102E86008D0F920F930F940F950F960F80250000CC
:102E9600000003000300082F0000000000000109E5
:032EA600111900FF
:102EAA00C00E0E6E030ED4EC16F00001EE6FB00EDB
:102EBA001C6E000E1D6E55EC16F00001EE6F9E0E94
:102ECA00EB6F000EEC6F86EC16F00001EE6F12004D
:102EDA009D9847504810D8B475EF17F077EF17F060
:102EEA0083EF17F002D883EF17F00500FA6E475008
:102EFA00FD6E4850FE6EFF6AFA5012001200060E6E
:102F0A00016E000E026E040E036E1AEC17F00650E4
:102F1A00D00F666E0750D00F656E0850D00F646EE2
:102F2A001200016EF2900150D8A49EEF17F0A0EFA4
:102F3A0017F0A2EF17F0A2EF17F01200016EF2904D
:102F4A000150D8A4ABEF17F0ADEF17F0AFEF17F0C1
:102F5A00AFEF17F01200016EF2900150D8A4B8EF4B
:102F6A0017F0BAEF17F0BCEF17F0BCEF17F012002A
:102F7A00016EF2900150D8A4C5EF17F0C7EF17F011
:102F8A00C9EF17F0C9EF17F0120055EC17F095ECDE
:102F9A0011F0AFEC16F0CCEF17F007EF00F0322D7E
:102FAA0014685A622A1A622A01010101A1924A503E
:102FBA00B36E49C0B2FF12009E904C50CF6E4BC008
:102FCA00CEFF1200F2944E50D76E4DC0D6FF1200BB
:102FDA009E925CC0CCFF12009E961200A19612002F
:102FEA00F0921200F0901200F2921200A1901200D8
:0C2FFA009E9412009E9C12001200120017
:020000040020DA
:08000000FFFFFFFFFFFFFFFF00
:020000040030CA
:0E000000FF020912FF8181FF0FC00FE00F40C9
:00000001FF
