:0400000007EF00F016
:0A0008007C8280ED0CF01FEF16F073
:10100000003738392F3435362A3132332D23303DED
:051010002B2569000022
:101016004750800B506E47504724526E46AE16EF2F
:1010260008F018EF08F019EF08F052805250D8B4C3
:101036001FEF08F021EF08F036EF08F05228D8A489
:1010460027EF08F029EF08F031EF08F0000E446EA4
:10105600000E456E000E466E000E476E468E000E62
:10106600476E3EEF08F0000E446E000E456E000E11
:10107600466E000E476E4B50800B516E5050511805
:10108600D8B448EF08F04AEF08F04BEF08F0508C60
:101096004B504B24516E4AAE53EF08F055EF08F013
:1010A60056EF08F051805150D8B45CEF08F05EEF6F
:1010B60008F073EF08F05128D8A464EF08F066EF43
:1010C60008F06EEF08F0000E486E000E496E000E36
:1010D6004A6E000E4B6E4A8E000E4B6E7BEF08F08A
:1010E600000E486E000E496E000E4A6E000E4B6EE4
:1010F6005250515CD8B082EF08F084EF08F0ABEFA5
:1011060008F050AC89EF08F08BEF08F08DEF08F08F
:10111600800E501A52C053F051C052F053C051F0D5
:1011260044C053F048C044F053C048F045C053F0A3
:1011360049C045F053C049F046C053F04AC046F096
:1011460053C04AF047C053F04BC047F053C04BF072
:10115600000E536E525051C04CF04D6A4C5E000E5C
:101166004D5A4DBEC0EF08F04D5009E11A0E4C5CC9
:10117600D8A0C0EF08F0C2EF08F0F9EF08F044502D
:10118600451046104710D8A4CBEF08F0CEEF08F074
:10119600010ECFEF08F0000E536E000E446E000EE7
:1011A600456E000E466E000E476E51C052F002EFBD
:1011B60009F053A0E1EF08F0E3EF08F0E9EF08F0DB
:1011C600D89053300109536EEBEF08F0D8905332A4
:1011D60044A0F0EF08F0F2EF08F0F3EF08F0538EBA
:1011E60047344732463245324432522A5150525CD5
:1011F600D8A000EF09F002EF09F0DCEF08F050BCD0
:1012060007EF09F009EF09F049EF09F05250D8A4A9
:101216000FEF09F011EF09F01BEF09F0000E446E15
:10122600000E456E000E466E000E476E6AEF0AF01F
:1012360048504426495045224A5046224B504722A0
:1012460047A028EF09F02AEF09F0D6EF09F053A0DE
:101256002FEF09F031EF09F037EF09F0D89053304E
:101266000109536E39EF09F0D890533244A03EEF8E
:1012760009F040EF09F041EF09F0538E4734473249
:10128600463245324432522AD6EF09F04850445C81
:10129600495045584A5046584750800A4C6E4B5064
:1012A600800A4C58D8B05AEF09F05CEF09F087EF86
:1012B60009F04450485C4C6E455049584D6E4650B6
:1012C6004A584E6E47504B584F6EFF0E4C24446E94
:1012D600FF0E4D20456EFF0E4E20466EFF0E4F2030
:1012E600476E800E501A536C5350D8A47DEF09F008
:1012F6007FEF09F08FEF09F0010E4426000E45221C
:10130600462247228FEF09F04850445E4950455A1D
:101316004A50465A4B50475A4450451046104710BB
:10132600D8A498EF09F09AEF09F0CFEF09F05350DF
:10133600D8A4A0EF09F0A2EF09F0CFEF09F0000E54
:10134600446E000E456E000E466E000E476E6AEF46
:101356000AF0D890443645364636473653AEB6EF91
:1013660009F0B8EF09F0B9EF09F0448053A0BEEFD9
:1013760009F0C0EF09F0C4EF09F0D8805336C6EF84
:1013860009F0D89053365250D8B4CCEF09F0CEEFCE
:1013960009F0CFEF09F0520646AED4EF09F0D6EFCA
:1013A60009F0ACEF09F0000E516E53AEDDEF09F017
:1013B600DFEF09F0F7EF09F053C04CF07F0E4C1643
:1013C600D8B4E8EF09F0EAEF09F0EEEF09F0010E04
:1013D600516EF7EF09F044A0F3EF09F0F5EF09F0CD
:1013E600F7EF09F0EAEF09F05150D8B4FDEF09F034
:1013F600FFEF09F02AEF0AF0010E4426000E4522FF
:101406004622472247A00AEF0AF00CEF0AF02AEF1D
:101416000AF044C04CF045C04DF046C04EF047C0FF
:101426004FF04F344F324E324D324C324CC044F0B6
:101436004DC045F04EC046F04FC047F05228D8B4D4
:1014460027EF0AF029EF0AF02AEF0AF0522A52286B
:10145600D8B430EF0AF032EF0AF03AEF0AF0525001
:10146600D8A438EF0AF03AEF0AF04CEF0AF0000E73
:10147600446E000E456E000E466E000E476E5250CC
:10148600D8A448EF0AF04AEF0AF04CEF0AF0000E33
:10149600506E52A051EF0AF053EF0AF056EF0AF0E1
:1014A600468E57EF0AF0469ED8905230476E50AEA1
:1014B6005FEF0AF061EF0AF062EF0AF0478E44C070
:1014C60044F045C045F046C046F047C047F012001C
:1014D6001550800B1E6E15501524246E14AE76EF33
:1014E6000AF078EF0AF079EF0AF024802450D8B495
:1014F6007FEF0AF081EF0AF094EF0AF02428D8A4CF
:1015060087EF0AF089EF0AF091EF0AF0000E126EEB
:10151600000E136E000E146E000E156E148E9CEFE8
:101526000AF0000E126E000E136E000E146E000E00
:10153600156E1950800B1E1A195019241F6E18AEFD
:10154600A7EF0AF0A9EF0AF0AAEF0AF01F801F50D2
:10155600D8B4B0EF0AF0B2EF0AF0C5EF0AF01F28D0
:10156600D8A4B8EF0AF0BAEF0AF0C2EF0AF0000EFC
:10157600166E000E176E000E186E000E196E188E7F
:10158600CDEF0AF0000E166E000E176E000E186EE6
:10159600000E196E1F50D8B4D3EF0AF0D5EF0AF03B
:1015A600DDEF0AF02450D8A4DBEF0AF0DDEF0AF0F5
:1015B600E7EF0AF0000E126E000E136E000E146EA8
:1015C600000E156E7FEF0CF018501202F3CF29F0C3
:1015D600F4CF2AF02950206E216A226A236A2A5003
:1015E600256E266A276A286A17501302F3CF29F058
:1015F600F4CF2AF029502026000E2122222223226F
:101606002A502526000E26222722282216501402AA
:10161600F3CF29F0F4CF2AF029502026000E2122FC
:10162600222223222A502526000E2622272228227D
:1016360022C023F021C022F020C021F0206A1650DB
:101646001302F3CF29F0F4CF2AF0295020262A508E
:101656002122000E2222000E232217501202F3CF5F
:1016660029F0F4CF2AF0295020262A502122000EF4
:101676002222000E232222C023F021C022F020C005
:1016860021F0206A16501202F3CF29F0F4CF2AF087
:10169600295020262A502122000E2222000E232223
:1016A60018501302F3CF29F0F4CF2AF0295025263B
:1016B6002A502622000E2722000E28221750140236
:1016C600F3CF29F0F4CF2AF0295025262A502622D6
:1016D600000E2722000E282218501402F3CF29F0FC
:1016E600F4CF2AF029501A6E2A501B6E1C6A1D6A06
:1016F6001CC01DF01BC01CF01AC01BF01A6A1A5041
:1017060025261B5026221C5027221D50282220C089
:101716001AF021C01BF022C01CF023C01DF0190EC8
:101726009AEF0BF0D8901D321C321B321A32E82E7B
:1017360095EF0BF01A5025261B5026221C50272207
:101746001D50282222C023F021C022F020C021F003
:10175600206A1F5024C01AF01B6A1A26000E1B228C
:10176600820E1A24296EFF0E1B202A6ED0EF0BF074
:10177600D890253626362736283623AEC5EF0BF009
:10178600C7EF0BF0C8EF0BF02580D8902036213636
:10179600223623362906D8A02A0627AED5EF0BF027
:1017A600D7EF0BF0BBEF0BF0000E1F6E23AEDEEF94
:1017B6000BF0E0EF0BF004EF0CF0FF0E20141A6EA6
:1017C600FF0E21141B6EFF0E22141C6E7F0E2314B7
:1017D6001D6E1A501B101C101D10D8B4F5EF0BF01F
:1017E600F7EF0BF0FBEF0BF0010E1F6E04EF0CF0A2
:1017F60025A000EF0CF002EF0CF004EF0CF0F7EF71
:101806000BF01F50D8B40AEF0CF00CEF0CF030EFD1
:101816000CF0010E2526000E26222722282228A0BB
:1018260017EF0CF019EF0CF030EF0CF025C01AF0A2
:1018360026C01BF027C01CF028C01DF01D341D3229
:101846001C321B321A321AC025F01BC026F01CC0EF
:1018560027F01DC028F0294A2A2A2ABE3BEF0CF0A1
:101866002A5008E12928D8A03BEF0CF03DEF0CF0F8
:1018760047EF0CF0000E256E000E266E800E276ECA
:101886007F0E286E75EF0CF02ABE54EF0CF02A502E
:1018960006E12904D8B052EF0CF054EF0CF060EFDB
:1018A6000CF0000E256E000E266E000E276E000E42
:1018B600286E000E1E6E75EF0CF029C024F0FF0E88
:1018C6002516FF0E26167F0E2716000E281624A0B4
:1018D6006FEF0CF071EF0CF072EF0CF0278ED890D2
:1018E6002430286E1E50281225C012F026C013F090
:1018F60027C014F028C015F012000600FACF02F037
:10190600FBCF03F0F2A88AEF0CF08CEF0CF095EF0A
:101916000CF0F2A291EF0CF093EF0CF095EF0CF0B7
:1019260002EC18F0F0A69AEF0CF09CEF0CF0A5EF85
:101936000CF0F0A0A1EF0CF0A3EF0CF0A5EF0CF06B
:1019460000EC18F0F0A8AAEF0CF0ACEF0CF0B5EF35
:101956000CF0F0A2B1EF0CF0B3EF0CF0B5EF0CF019
:10196600FEEC17F0F2A6BAEF0CF0BCEF0CF0D7EFD6
:101976000CF0F2A0C1EF0CF0C3EF0CF0D7EF0CF0B7
:1019860081A8C8EF0CF0CAEF0CF0D7EF0CF07B047F
:10199600D8A4D0EF0CF0D2EF0CF0D7EF0CF0000E7D
:1019A6007B6E000EBCEC17F0F2A6DCEF0CF0DEEF5F
:1019B6000CF0F9EF0CF0F2A0E3EF0CF0E5EF0CF011
:1019C600F9EF0CF081B8EAEF0CF0ECEF0CF0F9EF60
:1019D6000CF07B50D8A4F2EF0CF0F4EF0CF0F9EF1A
:1019E6000CF0010E7B6E010EBCEC17F0F2A6FEEFBA
:1019F6000CF000EF0DF01BEF0DF0F2A005EF0DF06F
:101A060007EF0DF01BEF0DF081AA0CEF0DF00EEFB6
:101A16000DF01BEF0DF07A04D8A414EF0DF016EFBD
:101A26000DF01BEF0DF0000E7A6E000EAFEC17F006
:101A3600F2A620EF0DF022EF0DF03DEF0DF0F2A033
:101A460027EF0DF029EF0DF03DEF0DF081BA2EEFE7
:101A56000DF030EF0DF03DEF0DF07A50D8A436EFD3
:101A66000DF038EF0DF03DEF0DF0010E7A6E010E20
:101A7600AFEC17F0F2A642EF0DF044EF0DF05FEF7A
:101A86000DF0F2A049EF0DF04BEF0DF05FEF0DF00A
:101A960081AC50EF0DF052EF0DF05FEF0DF07904D1
:101AA600D8A458EF0DF05AEF0DF05FEF0DF0000ED1
:101AB600796E000EA2EC17F0F2A664EF0DF066EF59
:101AC6000DF081EF0DF0F2A06BEF0DF06DEF0DF064
:101AD60081EF0DF081BC72EF0DF074EF0DF081EF28
:101AE6000DF07950D8A47AEF0DF07CEF0DF081EF70
:101AF6000DF0010E796E010EA2EC17F0F2A686EF3C
:101B06000DF088EF0DF0A3EF0DF0F2A08DEF0DF0C4
:101B16008FEF0DF0A3EF0DF081AE94EF0DF096EF81
:101B26000DF0A3EF0DF07804D8A49CEF0DF09EEF16
:101B36000DF0A3EF0DF0000E786E000E95EC17F089
:101B4600F2A6A8EF0DF0AAEF0DF0C5EF0DF0F2A08A
:101B5600AFEF0DF0B1EF0DF0C5EF0DF081BEB6EFB2
:101B66000DF0B8EF0DF0C5EF0DF07850D8A4BEEF2C
:101B76000DF0C0EF0DF0C5EF0DF0010E786E010E01
:101B860095EC17F09DACCAEF0DF0CCEF0DF0D5EF4C
:101B96000DF09EACD1EF0DF0D3EF0DF0D5EF0DF0BB
:101BA60008EC18F0F2AADAEF0DF0DCEF0DF0E5EF35
:101BB6000DF0F2A4E1EF0DF0E3EF0DF0E5EF0DF01F
:101BC600DCEC17F09DA0EAEF0DF0ECEF0DF0F5EF71
:101BD6000DF09EA0F1EF0DF0F3EF0DF0F5EF0DF027
:101BE600E3EC17F09DA2FAEF0DF0FCEF0DF005EF18
:101BF6000EF09EA201EF0EF003EF0EF005EF0EF0D1
:101C0600F3EC17F0A0A20AEF0EF00CEF0EF015EFB2
:101C16000EF0A1A211EF0EF013EF0EF015EF0EF07D
:101C260061EC17F09DA81AEF0EF01CEF0EF025EFF1
:101C36000EF09EA821EF0EF023EF0EF025EF0EF02A
:101C460004EC18F09DAA2AEF0EF02CEF0EF035EFFB
:101C56000EF09EAA31EF0EF033EF0EF035EF0EF0D8
:101C66000CEC18F09DA63AEF0EF03CEF0EF045EFA7
:101C76000EF09EA641EF0EF043EF0EF045EF0EF08C
:101C8600FAEC17F0A0A64AEF0EF04CEF0EF055EF67
:101C96000EF0A1A651EF0EF053EF0EF055EF0EF039
:101CA600FCEC17F09DA65AEF0EF05CEF0EF065EF18
:101CB6000EF09EA661EF0EF063EF0EF065EF0EF0EC
:101CC6000BEC18F09DA46AEF0EF06CEF0EF075EFBA
:101CD6000EF09EA471EF0EF073EF0EF075EF0EF09E
:101CE6007DEC17F0A0A07AEF0EF07CEF0EF085EFFA
:101CF6000EF0A1A081EF0EF083EF0EF085EF0EF04F
:101D060006EC18F003C0FBFF02C0FAFF7C9211003C
:101D16002E50800B3B6E2E502E24426E2DAE96EF2B
:101D26000EF098EF0EF099EF0EF042804250D8B4C4
:101D36009FEF0EF0A1EF0EF0B6EF0EF04228D8A4FA
:101D4600A7EF0EF0A9EF0EF0B1EF0EF0000E2B6E1E
:101D5600000E2C6E000E2D6E000E2E6E2D8E000EB9
:101D66002E6EBEEF0EF0000E2B6E000E2C6E000EC9
:101D76002D6E000E2E6E3250800B3B1A32503224DE
:101D8600436E31AEC9EF0EF0CBEF0EF0CCEF0EF096
:101D960043804350D8B4D2EF0EF0D4EF0EF0E9EF03
:101DA6000EF04328D8A4DAEF0EF0DCEF0EF0E4EFE5
:101DB6000EF0000E2F6E000E306E000E316E000E0D
:101DC600326E318E000E326EF1EF0EF0000E2F6E77
:101DD600000E306E000E316E000E326E2F50301037
:101DE60031103210D8A4FAEF0EF0FCEF0EF014EF1B
:101DF6000FF0000E2B6E000E2C6E000E2D6E000ED8
:101E06002E6E800E2D127F0E2E123B502E122BC0E0
:101E16002BF02CC02CF02DC02DF02EC02EF057EF3D
:101E260010F04250D8A41AEF0FF01CEF0FF026EF77
:101E36000FF0000E2B6E000E2C6E000E2D6E000E97
:101E46002E6E57EF10F0435042C033F0346A335EC3
:101E5600000E345A7F0E33243C6E000E34203D6E45
:101E66002BC037F02CC038F02DC039F02EC03AF018
:101E7600000E2B6E000E2C6E000E2D6E000E2E6EBA
:101E8600000E3E6E000E3F6E000E406E000E416E5E
:101E9600000E436E87EF0FF04350D8B455EF0FF0A6
:101EA60057EF0FF06EEF0FF0D890373638363936D9
:101EB6003A36D8902B362C362D362E3641AE66EF76
:101EC6000FF068EF0FF069EF0FF02B80D8903E36D9
:101ED6003F36403641362F50375C305038583150F7
:101EE600395832503A58D8A07BEF0FF07DEF0FF0FB
:101EF60086EF0FF0418C2F50375E3050385A3150F4
:101F0600395A32503A5A432A190E43648DEF0FF06C
:101F16008FEF0FF04FEF0FF03750381039103A109F
:101F2600D8B498EF0FF09AEF0FF0B2EF0FF03E80B3
:101F3600B2EF0FF0D8902B362C362D362E3641AE1A
:101F4600A7EF0FF0A9EF0FF0AAEF0FF02B80D890B4
:101F56003E363F36403641363C06D8A03D062DAECD
:101F6600B7EF0FF0B9EF0FF09DEF0FF0000E436ED5
:101F760041AEC0EF0FF0C2EF0FF0E6EF0FF0FF0E2D
:101F86003E14336EFF0E3F14346EFF0E4014356E52
:101F96007F0E4114366E3350341035103610D8B4D7
:101FA600D7EF0FF0D9EF0FF0DDEF0FF0010E436E14
:101FB600E6EF0FF02BA0E2EF0FF0E4EF0FF0E6EF05
:101FC6000FF0D9EF0FF04350D8B4ECEF0FF0EEEF6F
:101FD6000FF012EF10F0010E2B26000E2C222D22F0
:101FE6002E222EA0F9EF0FF0FBEF0FF012EF10F0FC
:101FF6002BC033F02CC034F02DC035F02EC036F097
:102006003634363235323432333233C02BF034C0C4
:102016002CF035C02DF036C02EF03C4A3D2A3DBE90
:102026001DEF10F03D5008E13C28D8A01DEF10F040
:102036001FEF10F02AEF10F0000E3D6E3C68000E08
:102046002B6E000E2C6E000E2D6E000E2E6E3DBEFB
:1020560037EF10F03D5006E13C04D8B035EF10F0F4
:1020660037EF10F045EF10F0000E3D6E000E3C6E9F
:10207600000E2B6E000E2C6E000E2D6E000E2E6EB8
:10208600000E3B6E3CC042F042A04CEF10F04EEF0B
:1020960010F051EF10F02D8E52EF10F02D9ED890CB
:1020A60042302E6E08EF0FF01200000E166E000E74
:1020B600176E800E186E400E196E20EE05F05E50FB
:1020C600D9265F50DA22DECF04F0DECF05F0DECF70
:1020D60006F0DECF07F0000E40EC11F004C012F05F
:1020E60005C013F006C014F007C015F06BEC0AF03B
:1020F60012C061F013C062F014C063F015C064F042
:1021060020EE0AF05E50D9265F50DA22DF50606E6C
:102116006050046E056A066A076A000E40EC11F00C
:1021260004C016F005C017F006C018F007C019F075
:1021360061C012F062C013F063C014F064C015F001
:102146006BEC0AF012C065F013C066F014C067F0BD
:1021560015C068F0000E486E000E496E800E4A6E7D
:10216600BF0E4B6E20EE09F05E50D9265F50DA2284
:10217600DF50606E6050046E056A066A076A000EDC
:1021860040EC11F004C016F005C017F006C018F0B8
:1021960007C019F065C012F066C013F067C014F0EE
:1021A60068C015F06BEC0AF012C02FF013C030F0C7
:1021B60014C031F015C032F0000E2B6E240E2C6EBA
:1021C600740E2D6E4A0E2E6E8BEC0EF02BC044F064
:1021D6002CC045F02DC046F02EC047F00BEC08F0A1
:1021E60044C054F045C055F046C056F047C057F0BD
:1021F60047EC15F05450CB6E5EC0D9FF5FC0DAFFD6
:10220600DF50D8A409EF11F00BEF11F020EF11F019
:1022160020EE02F05E50D9265F50DA220C0EDE1850
:10222600D8A418EF11F01AEF11F03FEF11F0BD50DE
:10223600F00B0C09BD6E3FEF11F05EC0D9FF5FC019
:10224600DAFFDE04D8A42AEF11F02CEF11F03FEFED
:1022560011F020EE02F05E50D9265F50DA220C0E05
:10226600DE18D8A439EF11F03BEF11F03FEF11F073
:10227600BA50F00B0C09BA6E12000C6E0C50D8B4A2
:1022860047EF11F049EF11F06BEF11F007BE50EF79
:1022960011F04EEF11F06BEF11F004C008F005C01D
:1022A60009F006C00AF007C00BF0081E091E0A1E38
:1022B6000B1E082A000E09220A220B2208C00EF065
:1022C60009C00FF00AC010F00BC011F073EF11F047
:1022D60004C00EF005C00FF006C010F007C011F0E4
:1022E6000450051006100710D8A47CEF11F07EEFFD
:1022F60011F088EF11F0000E046E000E056E000E50
:10230600066E000E076E19EF12F0960E0D6E92EF26
:1023160011F00D2AD890113210320F320E32000E03
:102326000E14086E000E0F14096E000E10140A6EBD
:10233600FE0E11140B6E085009100A100B10D8A4CB
:10234600A7EF11F0A9EF11F08CEF11F0B7EF11F034
:102356000D2A010E0E26000E0F2210221122D890F1
:10236600113210320F320E32000E0E14086E000EAD
:102376000F14096E000E10140A6EFF0E11140B6E68
:10238600085009100A100B10D8A4CCEF11F0CEEFAC
:1023960011F0ABEF11F0D6EF11F00D06D8900E3616
:1023A6000F361036113610BEDBEF11F0DDEF11F0EF
:1023B600E5EF11F0020E0D60E3EF11F0E5EF11F01D
:1023C600D0EF11F00DB0EAEF11F0ECEF11F0EDEFF8
:1023D60011F0109ED8900D320DC008F0096A0A6AF5
:1023E6000B6A08C00BF00A6A096A086A08500E12DE
:1023F60009500F120A5010120B5011120C50D8B47B
:1024060007EF12F009EF12F011EF12F007BE10EF0E
:1024160012F00EEF12F011EF12F0118E0EC004F052
:102426000FC005F010C006F011C007F01200010E33
:102436000B6E07C0D9FF08C0DAFFDF50D8A426EF1D
:1024460012F028EF12F073EF12F04CEF12F0BD50BD
:10245600F00B0809BD6EC6EF12F0BD50F00B09096E
:10246600BD6EC6EF12F0BD50F00B0209BD6EC6EF91
:1024760012F0BD50F00B0A09BD6EC6EF12F0BD504A
:10248600F00B0B09BD6EC6EF12F0000E0B6EC6EF19
:1024960012F020EE02F00750D9260850DA22DF505B
:1024A600096E0A6A0A50000AD8B45CEF12F048EFC7
:1024B60012F00950020AD8B436EF12F00A0AD8B45C
:1024C6002AEF12F0010AD8B430EF12F0030AD8B49A
:1024D6003CEF12F0010AD8B442EF12F048EF12F0C6
:1024E60007C0D9FF08C0DAFFDE04D8A47DEF12F0DA
:1024F6007FEF12F0C6EF12F09FEF12F0BA50F00B1A
:102506000809BA6EC6EF12F0BA50F00B0909BA6E96
:10251600C6EF12F0BA50F00B0209BA6EC6EF12F00F
:10252600BA50F00B0A09BA6EC6EF12F0BA50F00BA9
:102536000B09BA6EC6EF12F020EE02F00750D9264C
:102546000850DA22DF50096E0A6A0A50000AD8B427
:10255600AFEF12F048EF12F00950020AD8B48DEF2F
:1025660012F00A0AD8B481EF12F0010AD8B487EF44
:1025760012F0030AD8B493EF12F0010AD8B499EF17
:1025860012F048EF12F007C004F008C005F09FEC07
:1025960016F00B501200010E0C6E04500510D8B444
:1025A600D7EF12F0D9EF12F0EAEF12F004C0D9FF1C
:1025B60005C0DAFFDF30E832E832070B066E070E99
:1025C6000664E8EF12F0EAEF12F04DEF13F0000E9A
:1025D6000C6E6EEF13F004C0D9FF05C0DAFFDF30D2
:1025E600E832E832070B066E010E076E062AFEEF8A
:1025F60012F0D8900736062EFCEF12F00750FF0AAD
:10260600086E04C0D9FF05C0DAFFDF50070B096E5C
:102616000950020DED0EF324D96E000EF420DA6E89
:10262600DECF0AF0DDCF0BF00AC0D9FF0BC0DAFF10
:102636000850DF166EEF13F004C0D9FF05C0DAFFAD
:10264600DF30E832E832070B066E010E076E062A07
:102656002FEF13F0D8900736062E2DEF13F004C097
:10266600D9FF05C0DAFFDF50070B086E0850020DD0
:10267600ED0EF324D96E000EF420DA6EDECF09F0EB
:10268600DDCF0AF009C0D9FF0AC0DAFF0750DF1212
:102696006EEF13F004C0D9FF05C0DAFFDFBC56EFBA
:1026A60013F059EF13F0010E5AEF13F0000E066EF9
:1026B600076A0750000AD8B463EF13F0EAEF12F086
:1026C6000650000AD8B4EEEF12F0010AD8B41FEF94
:1026D60013F0EAEF12F00C5012000001F951FA1152
:1026E600D8A478EF13F07AEF13F07EEF13F0000E14
:1026F600FB6F0FEF14F0F9C0D9FFFAC0DAFFDF5015
:10270600D8A488EF13F08AEF13F08EEF13F0F00ED3
:10271600BD169CEF13F0F9C0D9FFFAC0DAFFDE044C
:10272600D8A498EF13F09AEF13F09CEF13F0F00E85
:10273600BA1620EE01F0F951D926FA51DA22DF5005
:10274600D8A4A8EF13F0AAEF13F0B2EF13F0F9C074
:1027560007F0FAC008F011EC14F0DFEF13F020EEEA
:1027660001F0F951D926FA51DA22DE04D8A4BEEFD7
:1027760013F0C0EF13F0C8EF13F0F9C007F0FAC07A
:1027860008F01AEC12F0DFEF13F020EE01F0F95129
:10279600D926FA51DA22020EDE18D8A4D5EF13F0A4
:1027A600D7EF13F0DFEF13F0F9C05EF0FAC05FF079
:1027B60058EC10F0DFEF13F0030E0001F9250E6E52
:1027C600000EFA210F6E0EEC17F0F9C004F0FAC0F5
:1027D60005F044EC17F0F9C0D9FFFAC0DAFFDF5074
:1027E600D8A4F8EF13F0FAEF13F0FEEF13F0F00EA3
:1027F600BD160CEF14F0F9C0D9FFFAC0DAFFDE04FB
:10280600D8A408EF14F00AEF14F00CEF14F0F00E51
:10281600BA16010E0001FB6FFB511200010E0B6E82
:1028260007C0D9FF08C0DAFFDF50D8A41DEF14F0A7
:102836001FEF14F060EF14F03DEF14F0BD50F00BF5
:102846000409BD6EA9EF14F0BD50F00B0509BD6E6D
:10285600A9EF14F0BD50F00B0609BD6EA9EF14F0F8
:10286600BD50F00B0709BD6EA9EF14F0000E0B6EFC
:10287600A9EF14F020EE02F00750D9260850DA220C
:10288600DF50096E0A6A0A50000AD8B44DEF14F0F8
:1028960039EF14F00950040AD8B421EF14F0010AF4
:1028A600D8B427EF14F0030AD8B42DEF14F0010AB8
:1028B600D8B433EF14F039EF14F007C0D9FF08C0CD
:1028C600DAFFDE04D8A46AEF14F06CEF14F0A9EF77
:1028D60014F086EF14F0BA50F00B0409BA6EA9EFA3
:1028E60014F0BA50F00B0509BA6EA9EF14F0BA50FD
:1028F600F00B0609BA6EA9EF14F0BA50F00B0709EF
:10290600BA6EA9EF14F020EE02F00750D92608504F
:10291600DA22DF50096E0A6A0A50000AD8B496EF26
:1029260014F039EF14F00950040AD8B46EEF14F01D
:10293600010AD8B474EF14F0030AD8B47AEF14F08D
:10294600010AD8B480EF14F039EF14F007C004F090
:1029560008C005F09FEC16F00B501200010E0D6E2C
:1029660004500510D8B4BAEF14F0BCEF14F0CDEF54
:1029760014F004C0D9FF05C0DAFFDF30E832E832D0
:10298600070B076E070E0764CBEF14F0CDEF14F0BC
:1029960030EF15F0000E0D6E45EF15F004C0D9FFAF
:1029A60005C0DAFFDF30E832E832070B076E010EAA
:1029B600086E072AE1EF14F0D8900836072EDFEFED
:1029C60014F00850FF0A096E04C0D9FF05C0DAFFEB
:1029D600DF50070B0A6E0A50020DE30EF324D96E80
:1029E600000EF420DA6EDECF0BF0DDCF0CF00BC05C
:1029F600D9FF0CC0DAFF0950DF1645EF15F004C009
:102A0600D9FF05C0DAFFDF30E832E832070B076E80
:102A1600010E086E072A12EF15F0D8900836072E19
:102A260010EF15F004C0D9FF05C0DAFFDF50070B21
:102A3600096E0950020DE30EF324D96E000EF42040
:102A4600DA6EDECF0AF0DDCF0BF00AC0D9FF0BC07D
:102A5600DAFF0850DF1245EF15F00650076E086AD8
:102A66000850000AD8B43AEF15F0CDEF14F007502D
:102A7600000AD8B4D1EF14F0010AD8B402EF15F069
:102A8600CDEF14F00D501200563457345D6E5D5084
:102A9600D8A450EF15F052EF15F05CEF15F0000ECC
:102AA600546E000E556E000E566E000E576EC9EF30
:102AB60015F054C058F055C059F056C05AF057C0DA
:102AC6005BF0200E6CEF15F0D8905B325A3259321B
:102AD6005832E82E67EF15F058505C6E568EFF0E92
:102AE6005416FF0E5516FF0E5616000E5716960E66
:102AF6005D5E5DBE83EF15F081EF15F099EF15F081
:102B06005D50800A970FD8B08BEF15F08DEF15F05A
:102B16008FEF15F052EF15F0D890573256325532E6
:102B260054325D3E8FEF15F0B1EF15F01F0E5D6468
:102B36009FEF15F0A1EF15F0A9EF15F052EF15F084
:102B4600D89054365536563657365D065D50D8A45D
:102B5600AFEF15F0B1EF15F0A3EF15F05C50D8B458
:102B6600B7EF15F0B9EF15F0C1EF15F0571E561E69
:102B7600551E546C000E55225622572254C054F04E
:102B860055C055F056C056F057C057F012000650C3
:102B96000710D8A4D1EF15F0D3EF15F0D7EF15F045
:102BA600000E0A6E1DEF16F0B19020EE05F00650ED
:102BB600D9260750DA22DF50030B086E083AB150C7
:102BC6000818CF0B0818B16E06C004F007C005F050
:102BD60060EC16F020EE03F00650D9260750DA22F4
:102BE600DECF08F0DDCF09F009C008F0096A085009
:102BF600B36E20EE03F00650D9260750DA22DF50D6
:102C0600B26E20EE03F00650D9260750DA22DECF48
:102C16009CF0DDCF9DF0A082A19206C0D9FF07C02F
:102C2600DAFFDECF9EF0DDCF9FF0F28EF28CB18020
:102C3600010E0A6E0A501200D20EF66E2F0EF76EB5
:102C4600000EF86E01EE00F010EE0AF00900F5CF66
:102C5600EEFFE550E150FAE1920EF66E2F0EF76E9A
:102C6600000EF86E00EEE3F010EE16F00900F5CF58
:102C7600EEFFE550E150FAE1DC0EF66E2F0EF76E30
:102C8600000EF86E00EE73F010EE09F00900F5CFB5
:102C9600EEFFE550E150FAE100EE80F0630EEE6AD9
:102CA600E806FDE100EE6AF0090EEE6AE806FDE1CF
:102CB6007C907C920001D7EF16F020EE05F00450D0
:102CC600D9260550DA22DFB46BEF16F06DEF16F059
:102CD60070EF16F0B1929EEF16F020EE05F004505C
:102CE600D9260550DA22DFA47BEF16F07DEF16F029
:102CF6009EEF16F0B18220EE05F00450D92605505D
:102D0600DA22DFA689EF16F08BEF16F08EEF16F0BB
:102D1600B1849EEF16F020EE05F00450D92605503A
:102D2600DA22DFB699EF16F09BEF16F09EEF16F05B
:102D3600B1949EEF16F0120020EE04F00450D9264E
:102D46000550DA22DF50D8A4ABEF16F0ADEF16F03F
:102D5600B1EF16F0B196B18CD6EF16F020EE04F076
:102D66000450D9260550DA22DE04D8A4BDEF16F0A9
:102D7600BFEF16F0C3EF16F0B186B19CD6EF16F092
:102D860020EE04F00450D9260550DA22020EDE1891
:102D9600D8A4D0EF16F0D2EF16F0D6EF16F0B19613
:102DA600B19CD6EF16F01200F7EC17F01A0E0001E0
:102DB600D76F300ED86F000ECC6F000ECD6F050E9C
:102DC600CE6F000ED06FCF51F80B0209CF6FCF51E7
:102DD600C70B1009CF6FCF8DCC0EF96F000EFA6FAF
:102DE60070EC13F0A80E0001DD6F2F0EDE6FE2957A
:102DF600000EDF6FFC0EE217000EE16F000EE06FB3
:102E0600E299DD0E066E000E076ECAEC15F00AEFAB
:102E160017F007EF00F00E500F10D8B415EF17F0AB
:102E260017EF17F028EF17F00EC0D9FF0FC0DAFF23
:102E3600DF30E832E832070B106E070E106426EF1B
:102E460017F028EF17F02CEF17F0000E116E42EF77
:102E560017F00EC004F00FC005F0CEEC12F0116EA4
:102E66000EC004F00FC005F00EC0D9FF0FC0DAFF88
:102E7600000EDFBE010E066EB1EC14F0116E11509D
:102E860012009D849E9420EE0BF00450D926055026
:102E9600DA22DECFC6F0DDCFC7F0F28EF28CA0804C
:102EA600A19020EE0EF00450D9260550DA22DECF8E
:102EB600C4F0DDCFC5F0F28EF28C1200A1920001B3
:102EC6009D51B36E9CC0B2FF9E519F11D8B46EEF58
:102ED60017F070EF17F07CEF17F002D87CEF17F0C1
:102EE6000500FA6E9E51FD6E9F51FE6EFF6AFA5006
:102EF600120012009E940001C651C711D8B486EF85
:102F060017F088EF17F094EF17F002D894EF17F048
:102F16000500FA6EC651FD6EC751FE6EFF6AFA5085
:102F260012001200016EF2900150D8A49DEF17F026
:102F36009FEF17F0A1EF17F0A1EF17F01200016E47
:102F4600F2900150D8A4AAEF17F0ACEF17F0AEEF4D
:102F560017F0AEEF17F01200016EF2900150D8A4F0
:102F6600B7EF17F0B9EF17F0BBEF17F0BBEF17F09D
:102F76001200016EF2900150D8A4C4EF17F0C6EF0C
:102F860017F0C8EF17F0C8EF17F01200890F8A0F75
:102F96008B0F8C0F8D0F920F930F940F950F960F2B
:102FA600685A010E00018E27000E8F23902391236D
:102FB6001200F2940001A551D76EA4C0D6FF1200EC
:102FC6009E906B50CF6E6AC0CEFF1200800F810FAD
:0F2FD600820F830F840F622A1A622A0101010100
:102FE6009E92CBC0CCFF12000AEC18F012009E96FF
:102FF6001200A1961200F0921200F0901200F292C6
:1030060012009D981200A19012009E9C12001200C0
:063016001200120012007E
:020000040020DA
:08000000FFFFFFFFFFFFFFFF00
:020000040030CA
:0E000000FF020912FF8181FF0FC00FE00F40C9
:00000001FF
