:0400000007EF00F016
:0A0008007D820EED0DF0F9EF19F006
:10100000003738392F3435362A3132332D23303DED
:101010002B5072657373203120546F2053657420F8
:10102000746865202054696D65203A200057726FFE
:101030006E672043686F69636520210057726F6E89
:10104000672054696D696E672021005365636F6E78
:101050006473203A20004D696E75746573203A20E0
:1010600000486F75726573203A200057656C636F96
:101070006D652E00446F6E652E0025690000000E20
:101080003D6E000E3E6E000E3F6E000E406E63EF32
:101090000AF0AC98AC94B89639C0D9FF3AC0DAFFE0
:1010A000DECF02F0DECF03F0DECF04F0DECF05F0BE
:1010B000000EDEEC10F002C014F003C015F004C006
:1010C00016F005C017F0000E106E240E116EF40E0F
:1010D000126E4A0E136E11EC0FF010C041F011C0E9
:1010E00042F012C043F013C044F0000E146E000E24
:1010F000156E800E166E420E176E41C010F042C083
:1011000011F043C012F044C013F011EC0FF010C006
:1011100029F011C02AF012C02BF013C02CF0000EE1
:101120002D6E000E2E6E800E2F6EBF0E306EAEEC4A
:101130000AF029C03DF02AC03EF02BC03FF02CC081
:1011400040F08EEF0AF0AC98AC84B89639C0D9FF65
:101150003AC0DAFFDECF02F0DECF03F0DECF04F0DC
:10116000DECF05F0000EDEEC10F002C014F003C07C
:1011700015F004C016F005C017F0000E106E240E16
:10118000116EF40E126E4A0E136E11EC0FF010C0B9
:1011900041F011C042F012C043F013C044F0000E01
:1011A000146E000E156E800E166E410E176E41C045
:1011B00010F042C011F043C012F044C013F011EC23
:1011C0000FF010C029F011C02AF012C02BF013C08C
:1011D0002CF0000E2D6E000E2E6E800E2F6EBF0EA8
:1011E000306EAEEC0AF029C03DF02AC03EF02BC0B4
:1011F0003FF02CC040F08EEF0AF0AC98AC94B8866B
:1012000039C0D9FF3AC0DAFFDECF02F0DECF03F0FB
:10121000DECF04F0DECF05F0000EDEEC10F002C0F1
:1012200014F003C015F004C016F005C017F0000E4E
:10123000106E240E116EF40E126E4A0E136E11EC27
:101240000FF010C041F011C042F012C043F013C0C3
:1012500044F0000E146E000E156E800E166E410ED8
:10126000176E41C010F042C011F043C012F044C0EC
:1012700013F011EC0FF010C029F011C02AF012C0C9
:101280002BF013C02CF0000E2D6E000E2E6E800E73
:101290002F6EBF0E306EAEEC0AF029C03DF02AC0B2
:1012A0003EF02BC03FF02CC040F08EEF0AF0AC981F
:1012B000AC84B88639C0D9FF3AC0DAFFDECF02F07D
:1012C000DECF03F0DECF04F0DECF05F0000EDEEC63
:1012D00010F002C014F003C015F004C016F005C0F1
:1012E00017F0000E106E240E116EF40E126E4A0EE0
:1012F000136E11EC0FF010C041F011C042F012C09B
:1013000043F013C044F0000E146E000E156E800EF4
:10131000166E400E176E41C010F042C011F043C06F
:1013200012F044C013F011EC0FF010C029F011C0FE
:101330002AF012C02BF013C02CF0000E2D6E000E00
:101340002E6E800E2F6EBF0E306EAEEC0AF029C0EE
:101350003DF02AC03EF02BC03FF02CC040F08EEF95
:101360000AF0AC88B89639C0D9FF3AC0DAFFDECFB0
:1013700002F0DECF03F0DECF04F0DECF05F0000E8A
:10138000DEEC10F002C014F003C015F004C016F03B
:1013900005C017F0000E106E240E116EF40E126EC2
:1013A0004A0E136E11EC0FF010C041F011C042F064
:1013B00012C043F013C044F0000E146E000E156E00
:1013C000800E166E400E176E41C010F042C011F034
:1013D00043C012F044C013F011EC0FF010C029F01C
:1013E00011C02AF012C02BF013C02CF0000E2D6E8D
:1013F000000E2E6E800E2F6EBF0E306EAEEC0AF019
:1014000029C03DF02AC03EF02BC03FF02CC040F078
:101410008EEF0AF0AC88B88639C0D9FF3AC0DAFF3F
:10142000DECF02F0DECF03F0DECF04F0DECF05F03A
:10143000000EDEEC10F002C014F003C015F004C082
:1014400016F005C017F0000E106E240E116EF40E8B
:10145000126E4A0E136E11EC0FF010C041F011C065
:1014600042F012C043F013C044F0000E146E000EA0
:10147000156E800E166E400E176E41C010F042C001
:1014800011F043C012F044C013F011EC0FF010C083
:1014900029F011C02AF012C02BF013C02CF0000E5E
:1014A0002D6E000E2E6E800E2F6EBF0E306EAEECC7
:1014B0000AF029C03DF02AC03EF02BC03FF02CC0FE
:1014C00040F08EEF0AF020EE04F03950D9263A5061
:1014D000DA22DF503B6E3C6A3C50000AD8B473EF0E
:1014E0000AF08EEF0AF03B50000AD8B449EF08F03A
:1014F000010AD8B4A3EF08F0030AD8B4FDEF08F04E
:10150000010AD8B457EF09F0070AD8B4B1EF09F0CF
:10151000010AD8B40AEF0AF08EEF0AF03DC002F0DB
:101520003EC003F03FC004F040C005F050EC16F0A0
:101530000250AF6E3DC002F03EC003F03FC004F069
:1015400040C005F050EC16F003C002F004C003F0F8
:1015500005C004F0056A0250B06E12002C50800BDA
:10156000356E2C502C24376E2BAEB9EF0AF0BBEF42
:101570000AF0BCEF0AF037803750D8B4C2EF0AF057
:10158000C4EF0AF0D9EF0AF03728D8A4CAEF0AF05E
:10159000CCEF0AF0D4EF0AF0000E296E000E2A6E8E
:1015A000000E2B6E000E2C6E2B8E000E2C6EE1EFBB
:1015B0000AF0000E296E000E2A6E000E2B6E000E31
:1015C0002C6E3050800B366E35503618D8B4EBEF99
:1015D0000AF0EDEF0AF0EEEF0AF0358C30503024CF
:1015E000366E2FAEF6EF0AF0F8EF0AF0F9EF0AF0D8
:1015F00036803650D8B4FFEF0AF001EF0BF016EF4B
:101600000BF03628D8A407EF0BF009EF0BF011EF21
:101610000BF0000E2D6E000E2E6E000E2F6E000EC3
:10162000306E2F8E000E306E1EEF0BF0000E2D6E02
:10163000000E2E6E000E2F6E000E306E3750365C90
:10164000D8B025EF0BF027EF0BF04EEF0BF035ACD9
:101650002CEF0BF02EEF0BF030EF0BF0800E351A65
:1016600037C038F036C037F038C036F029C038F00F
:101670002DC029F038C02DF02AC038F02EC02AF035
:1016800038C02EF02BC038F02FC02BF038C02FF010
:101690002CC038F030C02CF038C030F0000E386E5E
:1016A000375036C031F0326A315E000E325A32BEE7
:1016B00063EF0BF0325009E11A0E315CD8A063EFF2
:1016C0000BF065EF0BF09CEF0BF029502A102B105C
:1016D0002C10D8A46EEF0BF071EF0BF0010E72EF2F
:1016E0000BF0000E386E000E296E000E2A6E000EF2
:1016F0002B6E000E2C6E36C037F0A5EF0BF038A025
:1017000084EF0BF086EF0BF08CEF0BF0D8903830B5
:101710000109386E8EEF0BF0D890383229A093EF84
:101720000BF095EF0BF096EF0BF0388E2C342C323B
:101730002B322A322932372A3650375CD8A0A3EF11
:101740000BF0A5EF0BF07FEF0BF035BCAAEF0BF021
:10175000ACEF0BF0ECEF0BF03750D8A4B2EF0BF07E
:10176000B4EF0BF0BEEF0BF0000E296E000E2A6EE8
:10177000000E2B6E000E2C6E0DEF0DF02D50292655
:101780002E502A222F502B2230502C222CA0CBEF6F
:101790000BF0CDEF0BF079EF0CF038A0D2EF0BF09F
:1017A000D4EF0BF0DAEF0BF0D89038300109386E37
:1017B000DCEF0BF0D890383229A0E1EF0BF0E3EF2B
:1017C0000BF0E4EF0BF0388E2C342C322B322A3213
:1017D0002932372A79EF0CF02D50295C2E502A58E7
:1017E0002F502B582C50800A316E3050800A3158BF
:1017F000D8B0FDEF0BF0FFEF0BF02AEF0CF0295003
:101800002D5C316E2A502E58326E2B502F58336E6D
:101810002C503058346EFF0E3124296EFF0E3220CA
:101820002A6EFF0E33202B6EFF0E34202C6E800E9E
:10183000351A386C3850D8A420EF0CF022EF0CF099
:1018400032EF0CF0010E2926000E2A222B222C2228
:1018500032EF0CF02D50295E2E502A5A2F502B5A61
:1018600030502C5A29502A102B102C10D8A43BEFA2
:101870000CF03DEF0CF072EF0CF03850D8A443EFB1
:101880000CF045EF0CF072EF0CF0000E296E000E1C
:101890002A6E000E2B6E000E2C6E0DEF0DF0D89000
:1018A00029362A362B362C3638AE59EF0CF05BEF42
:1018B0000CF05CEF0CF0298038A061EF0CF063EFC6
:1018C0000CF067EF0CF0D880383669EF0CF0D89048
:1018D00038363750D8B46FEF0CF071EF0CF072EF70
:1018E0000CF037062BAE77EF0CF079EF0CF04FEFE2
:1018F0000CF0000E366E38AE80EF0CF082EF0CF07C
:101900009AEF0CF038C031F07F0E3116D8B48BEF5F
:101910000CF08DEF0CF091EF0CF0010E366E9AEF9B
:101920000CF029A096EF0CF098EF0CF09AEF0CF069
:101930008DEF0CF03650D8B4A0EF0CF0A2EF0CF005
:10194000CDEF0CF0010E2926000E2A222B222C228C
:101950002CA0ADEF0CF0AFEF0CF0CDEF0CF029C0E8
:1019600031F02AC032F02BC033F02CC034F03434C4
:10197000343233323232313231C029F032C02AF0BF
:1019800033C02BF034C02CF03728D8B4CAEF0CF099
:10199000CCEF0CF0CDEF0CF0372A3728D8B4D3EFCA
:1019A0000CF0D5EF0CF0DDEF0CF03750D8A4DBEFE6
:1019B0000CF0DDEF0CF0EFEF0CF0000E296E000ED6
:1019C0002A6E000E2B6E000E2C6E3750D8A4EBEF53
:1019D0000CF0EDEF0CF0EFEF0CF0000E356E37A0D1
:1019E000F4EF0CF0F6EF0CF0F9EF0CF02B8EFAEFB1
:1019F0000CF02B9ED89037302C6E35AE02EF0DF0E8
:101A000004EF0DF005EF0DF02C8E29C029F02AC04F
:101A10002AF02BC02BF02CC02CF012000600F2A8EC
:101A200014EF0DF016EF0DF01FEF0DF0F2A21BEF0B
:101A30000DF01DEF0DF01FEF0DF09FEC1BF0F0A669
:101A400024EF0DF026EF0DF02FEF0DF0F0A02BEFAF
:101A50000DF02DEF0DF02FEF0DF09DEC1BF0F0A829
:101A600034EF0DF036EF0DF03FEF0DF0F0A23BEF4D
:101A70000DF03DEF0DF03FEF0DF09BEC1BF0F2A6EB
:101A800044EF0DF046EF0DF061EF0DF0F2A04BEFDB
:101A90000DF04DEF0DF061EF0DF081A852EF0DF05C
:101AA00054EF0DF061EF0DF07404D8A45AEF0DF06F
:101AB0005CEF0DF061EF0DF0000E746E000E69EC3E
:101AC0001BF0F2A666EF0DF068EF0DF083EF0DF05E
:101AD000F2A06DEF0DF06FEF0DF083EF0DF081B818
:101AE00074EF0DF076EF0DF083EF0DF07450D8A485
:101AF0007CEF0DF07EEF0DF083EF0DF0010E746EB4
:101B0000010E69EC1BF0F2A688EF0DF08AEF0DF0E4
:101B1000A5EF0DF0F2A08FEF0DF091EF0DF0A5EF16
:101B20000DF081AA96EF0DF098EF0DF0A5EF0DF0F6
:101B30007304D8A49EEF0DF0A0EF0DF0A5EF0DF00B
:101B4000000E736E000E5CEC1BF0F2A6AAEF0DF017
:101B5000ACEF0DF0C7EF0DF0F2A0B1EF0DF0B3EF69
:101B60000DF0C7EF0DF081BAB8EF0DF0BAEF0DF040
:101B7000C7EF0DF07350D8A4C0EF0DF0C2EF0DF019
:101B8000C7EF0DF0010E736E010E5CEC1BF0F2A6B8
:101B9000CCEF0DF0CEEF0DF0E9EF0DF0F2A0D3EFAA
:101BA0000DF0D5EF0DF0E9EF0DF081ACDAEF0DF0AF
:101BB000DCEF0DF0E9EF0DF07204D8A4E2EF0DF0C8
:101BC000E4EF0DF0E9EF0DF0000E726E000E4FEC39
:101BD0001BF0F2A6EEEF0DF0F0EF0DF00BEF0EF0B4
:101BE000F2A0F5EF0DF0F7EF0DF00BEF0EF081BC6A
:101BF000FCEF0DF0FEEF0DF00BEF0EF07250D8A4DD
:101C000004EF0EF006EF0EF00BEF0EF0010E726E09
:101C1000010E4FEC1BF0F2A610EF0EF012EF0EF0DB
:101C20002DEF0EF0F2A017EF0EF019EF0EF02DEFE2
:101C30000EF081AE1EEF0EF020EF0EF02DEF0EF045
:101C40007104D8A426EF0EF028EF0EF02DEF0EF061
:101C5000000E716E000E42EC1BF0F2A632EF0EF099
:101C600034EF0EF04FEF0EF0F2A039EF0EF03BEF35
:101C70000EF04FEF0EF081BE40EF0EF042EF0EF08F
:101C80004FEF0EF07150D8A448EF0EF04AEF0EF06F
:101C90004FEF0EF0010E716E010E42EC1BF09DAC89
:101CA00054EF0EF056EF0EF05FEF0EF09EAC5BEFD0
:101CB0000EF05DEF0EF05FEF0EF0A7EC1BF0F2AA56
:101CC00064EF0EF066EF0EF06FEF0EF0F2A46BEF24
:101CD0000EF06DEF0EF06FEF0EF08DEC1BF09DA08F
:101CE00074EF0EF076EF0EF07FEF0EF09EA07BEF1C
:101CF0000EF07DEF0EF07FEF0EF087EC1BF09DA253
:101D000084EF0EF086EF0EF08FEF0EF09EA28BEFB9
:101D10000EF08DEF0EF08FEF0EF093EC1BF0A0A203
:101D200094EF0EF096EF0EF09FEF0EF0A1A29BEF56
:101D30000EF09DEF0EF09FEF0EF081EC1BF09DA8D2
:101D4000A4EF0EF0A6EF0EF0AFEF0EF09EA8ABEFF3
:101D50000EF0ADEF0EF0AFEF0EF0A1EC1BF09DAA70
:101D6000B4EF0EF0B6EF0EF0BFEF0EF09EAABBEF91
:101D70000EF0BDEF0EF0BFEF0EF0AAEC1BF09DA62B
:101D8000C4EF0EF0C6EF0EF0CFEF0EF09EA6CBEF35
:101D90000EF0CDEF0EF0CFEF0EF097EC1BF0A0A6FB
:101DA000D4EF0EF0D6EF0EF0DFEF0EF0A1A6DBEFD2
:101DB0000EF0DDEF0EF0DFEF0EF099EC1BF09DA6BC
:101DC000E4EF0EF0E6EF0EF0EFEF0EF09EA6EBEF75
:101DD0000EF0EDEF0EF0EFEF0EF0A9EC1BF09DA46E
:101DE000F4EF0EF0F6EF0EF0FFEF0EF09EA4FBEF17
:101DF0000EF0FDEF0EF0FFEF0EF0A5EC1BF0A0A033
:101E000004EF0FF006EF0FF00FEF0FF0A1A00BEFB4
:101E10000FF00DEF0FF00FEF0FF0A3EC1BF07D9222
:101E200011001350800B206E13501324276E12AE36
:101E30001CEF0FF01EEF0FF01FEF0FF02780275061
:101E4000D8B425EF0FF027EF0FF03CEF0FF0272865
:101E5000D8A42DEF0FF02FEF0FF037EF0FF0000E9B
:101E6000106E000E116E000E126E000E136E128EAA
:101E7000000E136E44EF0FF0000E106E000E116E88
:101E8000000E126E000E136E1750800B201A1750A2
:101E90001724286E16AE4FEF0FF051EF0FF052EFF0
:101EA0000FF028802850D8B458EF0FF05AEF0FF0F9
:101EB0006FEF0FF02828D8A460EF0FF062EF0FF05B
:101EC0006AEF0FF0000E146E000E156E000E166E07
:101ED000000E176E168E000E176E77EF0FF0000EC5
:101EE000146E000E156E000E166E000E176E145056
:101EF000151016101710D8A480EF0FF082EF0FF016
:101F00009AEF0FF0000E106E000E116E000E126EA2
:101F1000000E136E800E12127F0E13122050131239
:101F200010C010F011C011F012C012F013C013F065
:101F3000DDEF10F02750D8A4A0EF0FF0A2EF0FF0C4
:101F4000ACEF0FF0000E106E000E116E000E126E50
:101F5000000E136EDDEF10F0285027C018F0196A3C
:101F6000185E000E195A7F0E1824216E000E1920DB
:101F7000226E10C01CF011C01DF012C01EF013C064
:101F80001FF0000E106E000E116E000E126E000E8D
:101F9000136E000E236E000E246E000E256E000ED2
:101FA000266E000E286E0DEF10F02850D8B4DBEF2F
:101FB0000FF0DDEF0FF0F4EF0FF0D8901C361D3668
:101FC0001E361F36D890103611361236133626AE0E
:101FD000ECEF0FF0EEEF0FF0EFEF0FF01080D89076
:101FE000233624362536263614501C5C15501D58D1
:101FF00016501E5817501F58D8A001EF10F003EFCD
:1020000010F00CEF10F0268C14501C5E15501D5A69
:1020100016501E5A17501F5A282A190E286413EFFB
:1020200010F015EF10F0D5EF0FF01C501D101E1022
:102030001F10D8B41EEF10F020EF10F038EF10F0A2
:10204000238038EF10F0D890103611361236133640
:1020500026AE2DEF10F02FEF10F030EF10F01080C3
:10206000D89023362436253626362106D8A02206D7
:1020700012AE3DEF10F03FEF10F023EF10F0000E26
:10208000286E26AE46EF10F048EF10F06CEF10F01F
:10209000FF0E2314186EFF0E2414196EFF0E251464
:1020A0001A6E7F0E26141B6E185019101A101B1072
:1020B000D8B45DEF10F05FEF10F063EF10F0010E99
:1020C000286E6CEF10F010A068EF10F06AEF10F0BF
:1020D0006CEF10F05FEF10F02850D8B472EF10F0F2
:1020E00074EF10F098EF10F0010E1026000E112280
:1020F0001222132213A07FEF10F081EF10F098EF5F
:1021000010F010C018F011C019F012C01AF013C06E
:102110001BF01B341B321A321932183218C010F05F
:1021200019C011F01AC012F01BC013F0214A222A64
:1021300022BEA3EF10F0225008E12128D8A0A3EF7F
:1021400010F0A5EF10F0B0EF10F0000E226E216835
:10215000000E106E000E116E000E126E000E136E49
:1021600022BEBDEF10F0225006E12104D8B0BBEF33
:1021700010F0BDEF10F0CBEF10F0000E226E000E4D
:10218000216E000E106E000E116E000E126E000E0B
:10219000136E000E206E21C027F027A0D2EF10F0A2
:1021A000D4EF10F0D7EF10F0128ED8EF10F0129E8F
:1021B000D8902730136E8EEF0FF012000A6E0A507F
:1021C000D8B4E5EF10F0E7EF10F009EF11F005BE1D
:1021D000EEEF10F0ECEF10F009EF11F002C006F096
:1021E00003C007F004C008F005C009F0061E071E72
:1021F000081E091E062A000E07220822092206C010
:102200000CF007C00DF008C00EF009C00FF011EF80
:1022100011F002C00CF003C00DF004C00EF005C0B8
:102220000FF00250031004100510D8A41AEF11F09B
:102230001CEF11F026EF11F0000E026E000E036E7F
:10224000000E046E000E056EB7EF11F0960E0B6EC9
:1022500030EF11F00B2AD8900F320E320D320C32C3
:10226000000E0C14066E000E0D14076E000E0E14F8
:10227000086EFE0E0F14096E0650071008100910A4
:10228000D8A445EF11F047EF11F02AEF11F055EF08
:1022900011F00B2A010E0C26000E0D220E220F2229
:1022A000D8900F320E320D320C32000E0C14066E26
:1022B000000E0D14076E000E0E14086EFF0E0F14A4
:1022C000096E0650071008100910D8A46AEF11F023
:1022D0006CEF11F049EF11F074EF11F00B06D8908C
:1022E0000C360D360E360F360EBE79EF11F07BEF41
:1022F00011F083EF11F0020E0B6081EF11F083EF0C
:1023000011F06EEF11F00BB088EF11F08AEF11F0C1
:102310008BEF11F00E9ED8900B320BC006F0076ABF
:10232000086A096A06C009F0086A076A066A065060
:102330000C1207500D1208500E1209500F120A50BD
:10234000D8B4A5EF11F0A7EF11F0AFEF11F005BE73
:10235000AEEF11F0ACEF11F0AFEF11F00F8E0CC03B
:1023600002F00DC003F00EC004F00FC005F0120023
:10237000010E0A6E02500310D8B4C1EF11F0C3EF82
:1023800011F0D4EF11F002C0D9FF03C0DAFFDF3043
:10239000E832E832070B046E070E0464D2EF11F046
:1023A000D4EF11F037EF12F0000E0A6E58EF12F072
:1023B00002C0D9FF03C0DAFFDF30E832E832070B92
:1023C000046E010E056E042AE8EF11F0D890053670
:1023D000042EE6EF11F00550FF0A066E02C0D9FF89
:1023E00003C0DAFFDF50070B076E0750020D940E93
:1023F000F324D96E000EF420DA6EDECF08F0DDCFC4
:1024000009F008C0D9FF09C0DAFF0650DF1658EFFF
:1024100012F002C0D9FF03C0DAFFDF30E832E83241
:10242000070B046E010E056E042A19EF12F0D89006
:102430000536042E17EF12F002C0D9FF03C0DAFFF1
:10244000DF50070B066E0650020D940EF324D96E72
:10245000000EF420DA6EDECF07F0DDCF08F007C003
:10246000D9FF08C0DAFF0550DF1258EF12F002C0A2
:10247000D9FF03C0DAFFDFBC40EF12F043EF12F0E8
:10248000010E44EF12F0000E046E056A0550000ABA
:10249000D8B44DEF12F0D4EF11F00450000AD8B4C4
:1024A000D8EF11F0010AD8B409EF12F0D4EF11F00F
:1024B0000A5012000EEC1BF076EC1AF0750E1B6E33
:1024C000000E1C6E010E1D6E010E1E6E110E1F6E93
:1024D000100E206EE1EC18F07C6EB60E0C6E000E45
:1024E0000D6E7B0E0E6E000E0F6E1AEC14F07C6EED
:1024F0002F0E7B18D8B47FEF12F081EF12F05EEF51
:1025000012F0750E1B6E000E1C6E030E1D6E080E73
:102510001E6E7BC01FF09AEC1AF07C6E060E000156
:10252000E76F130EE66FAD0EE82EFED7E62FFCD751
:10253000E72FFAD700D0750E106E000E116E010E47
:10254000126E1DEC19F07C6E310E7B18D8A4ABEF27
:1025500012F0ADEF12F0B7EF12F0010E5E6EC4ECA8
:1025600015F038EC15F0ACEC14F0DCEF12F0750E51
:102570001B6E000E1C6E020E1D6E020E1E6E2D0EC8
:102580001F6E100E206EE1EC18F07C6E060E00013E
:10259000E76F130EE66FAD0EE82EFED7E62FFCD7E1
:1025A000E72FFAD700D0750E106E000E116E010ED7
:1025B000126E1DEC19F07C6E5E04D8A4E2EF12F0EE
:1025C000E4EF12F0EAEF12F024EC1BF0F7EC17F056
:1025D000000E5E6E2F0E7B6E5EEF12F007EF00F0C6
:1025E000010E0B6E02500310D8B4F9EF12F0FBEF9E
:1025F00012F00CEF13F002C0D9FF03C0DAFFDF3096
:10260000E832E832070B056E070E05640AEF13F097
:102610000CEF13F06FEF13F0000E0B6E84EF13F05E
:1026200002C0D9FF03C0DAFFDF30E832E832070B1F
:10263000056E010E066E052A20EF13F0D8900636BF
:10264000052E1EEF13F00650FF0A076E02C0D9FFD9
:1026500003C0DAFFDF50070B086E0850020D8A0E28
:10266000F324D96E000EF420DA6EDECF09F0DDCF50
:102670000AF009C0D9FF0AC0DAFF0750DF1684EF5D
:1026800013F002C0D9FF03C0DAFFDF30E832E832CE
:10269000070B056E010E066E052A51EF13F0D89058
:1026A0000636052E4FEF13F002C0D9FF03C0DAFF44
:1026B000DF50070B076E0750020D8A0EF324D96E08
:1026C000000EF420DA6EDECF08F0DDCF09F008C08E
:1026D000D9FF09C0DAFF0650DF1284EF13F004506F
:1026E000056E066A0650000AD8B479EF13F00CEFB5
:1026F00013F00550000AD8B410EF13F0010AD8B453
:1027000041EF13F00CEF13F00B501200000E186E97
:1027100014501510D8A48FEF13F091EF13F095EF2C
:1027200013F0000E196E18EF14F014C00CF015C061
:102730000DF08FEC19F0196E010E14240C6E000EC2
:1027400015200D6E8FEC19F0196E000E186E1850D2
:102750001424166E000E1520176E020E16240C6E31
:10276000000E17200D6E8FEC19F0182A030E186456
:10277000BCEF13F0BEEF13F0A7EF13F0340E166E9C
:10278000F20EE82EFED7162EFCD714C010F015C09E
:1027900011F0380E126E1DEC19F00D0E166EFC0EB7
:1027A000E82EFED7162EFCD714C010F015C011F07D
:1027B000380E126E1DEC19F0640EE82EFED714C010
:1027C00010F015C011F0380E126E1DEC19F014C087
:1027D00010F015C011F0010E126E1DEC19F014C0AE
:1027E00010F015C011F0020E126E1DEC19F014C09D
:1027F00010F015C011F0060E126E1DEC19F014C089
:1028000010F015C011F00C0E126E1DEC19F014C072
:1028100010F015C011F0280E126E1DEC19F014C046
:1028200010F015C011F0800E126E1DEC19F0196E2B
:1028300019501200000E156E000E166E000E146E6A
:10284000000E136E0C500D10D8B429EF14F02BEFBE
:1028500014F034EF14F00E500F10D8A432EF14F02F
:1028600034EF14F038EF14F0000E126EAAEF14F0EB
:10287000000E156E000E146E14500C24026E000E25
:102880000D20036E000E046EF0EC12F0142A030EFD
:1028900014644DEF14F04FEF14F03CEF14F01550AA
:1028A0000C24026E000E0D20036E010E046EF0EC7F
:1028B00012F01A0E106EF80EE82EFED7102EFCD76E
:1028C00000D0000E166E16500C24106E000E0D2057
:1028D000116E040E1024026E000E1120036E130EF2
:1028E000046E000E056E41EC17F0126E1304D8A4AE
:1028F0007CEF14F07EEF14F098EF14F01550040DF7
:10290000010E106E100E116EF3501026F4501122AD
:1029100016501026000E112210C0F6FF11C0F7FF4E
:10292000F86A0EC0D9FF0FC0DAFF0800F5CFDFFF4D
:10293000162A030E16649FEF14F0A1EF14F063EF54
:1029400014F0152A030E1564A8EF14F0AAEF14F082
:102950003AEF14F0125012002F0E7B6E750E1B6EA4
:10296000000E1C6E010E1D6E010E1E6E4B0E1F6EB4
:10297000100E206EE1EC18F07C6EB60E0C6E000EA0
:102980000D6E7B0E0E6E000E0F6E1AEC14F07C6E48
:10299000030E236E080E226E770EE82EFED7222E2F
:1029A000FCD7232EFAD700F02F0E7B18D8B4DBEF1C
:1029B00014F0DDEF14F0BDEF14F0750E1B6E000E79
:1029C0001C6E010E1D6E0C0E1E6E7BC01FF09AEC6D
:1029D0001AF07C6E7B50D00F0001A26F2F0E7B6E21
:1029E000B60E0C6E000E0D6E7B0E0E6E000E0F6E90
:1029F0001AEC14F07C6E030E236E080E226E770E16
:102A0000E82EFED7222EFCD7232EFAD700F02F0E69
:102A10007B18D8B40EEF15F010EF15F0F0EF14F0AE
:102A2000750E1B6E000E1C6E010E1D6E0D0E1E6EC1
:102A30007BC01FF09AEC1AF07C6E040E236E0C0E15
:102A4000226E340EE82EFED7222EFCD7232EFAD784
:102A50007B50D00F0001A36F2F0E7B6E750E106E92
:102A6000000E116E010E126E1DEC19F07C6E12003C
:102A70002F0E7B6E750E1B6E000E1C6E010E1D6EF2
:102A8000010E1E6E560E1F6E100E206EE1EC18F039
:102A90007C6EB60E0C6E000E0D6E7B0E0E6E000E72
:102AA0000F6E1AEC14F07C6E030E236E080E226E6D
:102AB000770EE82EFED7222EFCD7232EFAD700F071
:102AC0002F0E7B18D8B467EF15F069EF15F049EFBA
:102AD00015F0750E1B6E000E1C6E010E1D6E0C0E99
:102AE0001E6E7BC01FF09AEC1AF07C6E7B50D00FEC
:102AF0000001A06F2F0E7B6EB60E0C6E000E0D6ED9
:102B00007B0E0E6E000E0F6E1AEC14F07C6E030E30
:102B1000236E080E226E770EE82EFED7222EFCD7EB
:102B2000232EFAD700F02F0E7B18D8B49AEF15F0A9
:102B30009CEF15F07CEF15F0750E1B6E000E1C6EF1
:102B4000010E1D6E0D0E1E6E7BC01FF09AEC1AF06A
:102B50007C6E040E236E0C0E226E340EE82EFED711
:102B6000222EFCD7232EFAD77B50D00F0001A16F65
:102B70002F0E7B6E750E106E000E116E010E126E12
:102B80001DEC19F07C6E12002F0E7B6E750E1B6E05
:102B9000000E1C6E010E1D6E010E1E6E610E1F6E6C
:102BA000100E206EE1EC18F07C6EB60E0C6E000E6E
:102BB0000D6E7B0E0E6E000E0F6E1AEC14F07C6E16
:102BC000030E236E080E226E770EE82EFED7222EFD
:102BD000FCD7232EFAD700F02F0E7B18D8B4F3EFD2
:102BE00015F0F5EF15F0D5EF15F0750E1B6E000E14
:102BF0001C6E010E1D6E0B0E1E6E7BC01FF09AEC3C
:102C00001AF07C6E7B50D00F00019E6F2F0E7B6EF2
:102C1000B60E0C6E000E0D6E7B0E0E6E000E0F6E5D
:102C20001AEC14F07C6E030E236E080E226E770EE3
:102C3000E82EFED7222EFCD7232EFAD700F02F0E37
:102C40007B18D8B426EF16F028EF16F008EF16F030
:102C5000750E1B6E000E1C6E010E1D6E0C0E1E6E90
:102C60007BC01FF09AEC1AF07C6E040E236E0C0EE3
:102C7000226E340EE82EFED7222EFCD7232EFAD752
:102C80007B50D00F00019F6F2F0E7B6E750E106E64
:102C9000000E116E010E126E1DEC19F07C6E12000A
:102CA000043405340B6E0B50D8A459EF16F05BEFCB
:102CB00016F065EF16F0000E026E000E036E000EA9
:102CC000046E000E056ED2EF16F002C006F003C0CF
:102CD00007F004C008F005C009F0200E75EF16F0EB
:102CE000D8900932083207320632E82E70EF16F01B
:102CF00006500A6E048EFF0E0216FF0E0316FF0E1C
:102D00000416000E0516960E0B5E0BBE8CEF16F029
:102D10008AEF16F0A2EF16F00B50800A970FD8B08A
:102D200094EF16F096EF16F098EF16F05BEF16F0B2
:102D3000D89005320432033202320B3E98EF16F07F
:102D4000BAEF16F01F0E0B64A8EF16F0AAEF16F0FC
:102D5000B2EF16F05BEF16F0D89002360336043669
:102D600005360B060B50D8A4B8EF16F0BAEF16F0E4
:102D7000ACEF16F00A50D8B4C0EF16F0C2EF16F060
:102D8000CAEF16F0051E041E031E026C000E03227D
:102D90000422052202C002F003C003F004C004F0C4
:102DA00005C005F0120020EE08F00250D9260350AD
:102DB000DA22DFA0DEEF16F0E0EF16F040EF17F0BA
:102DC000AB8820EE0CF00250D9260350DA22DECF79
:102DD000C8F0DDCFC9F020EE0EF00250D926035026
:102DE000DA22DECFC6F0DDCFC7F020EE10F00250C1
:102DF000D9260350DA22DECFC4F0DDCFC5F020EEB5
:102E000008F00250D9260350DA22DFA20AEF17F0A9
:102E10000CEF17F012EF17F09D8A9D8AF28EF28C5C
:102E200020EF17F020EE08F00250D9260350DA22E6
:102E3000DFB21DEF17F01FEF17F020EF17F09D9A8C
:102E400020EE08F00250D9260350DA22DFA42BEF3F
:102E500017F02DEF17F030EF17F0AB8C40EF17F0B5
:102E600020EE08F00250D9260350DA22DFB43BEFFF
:102E700017F03DEF17F040EF17F0AB9C40EF17F065
:102E80001200010E0B6E02500310D8B44AEF17F077
:102E90004CEF17F066EF17F004500510D8B453EF5D
:102EA00017F055EF17F066EF17F002C0D9FF03C017
:102EB000DAFFDF30E832E832070B066E070E0664F1
:102EC00064EF17F066EF17F06AEF17F0000E0B6E65
:102ED0009BEF17F002C0D9FF03C0DAFFDF30E83202
:102EE000E832070B066E02C0D9FF03C0DAFFDF50DD
:102EF000070B076E0750020D800EF324D96E000EEB
:102F0000F420DA6EDECF08F0DDCF09F008C0D9FF7B
:102F100009C0DAFFDF500A6E062A91EF17F0D89049
:102F20000A32062E8FEF17F00A50010B04C0D9FFAA
:102F300005C0DAFFDF6E0B50120020EE06F00250E3
:102F4000D9260350DA22DFA0A8EF17F0AAEF17F076
:102F5000F6EF17F0AC8A20EE0AF00250D9260350A3
:102F6000DA22DECFCAF0DDCFCBF020EE06F0025041
:102F7000D9260350DA22DFA2C0EF17F0C2EF17F014
:102F8000C8EF17F09D889D88F28EF28CD6EF17F06F
:102F900020EE06F00250D9260350DA22DFB2D3EF3A
:102FA00017F0D5EF17F0D6EF17F09D9820EE06F04A
:102FB0000250D9260350DA22DFA4E1EF17F0E3EF45
:102FC00017F0E6EF17F0AC8CF6EF17F020EE06F0F6
:102FD0000250D9260350DA22DFB4F1EF17F0F3EFF5
:102FE00017F0F6EF17F0AC9CF6EF17F01200190E81
:102FF0006960FDEF17F0FFEF17F00FEF18F03D0ECF
:10300000686005EF18F007EF18F00FEF18F03C0EAE
:1030100067640DEF18F00FEF18F037EF18F0750E2A
:103020001B6E000E1C6E020E1D6E020E1E6E3C0EFE
:103030001F6E100E206EE1EC18F07C6E7CC07CF0F0
:10304000150E236E4B0E226EBE0EE82EFED7222EDC
:10305000FCD7232EFAD700D0750E106E000E116E1D
:10306000010E126E1DEC19F07C6E4CEF18F0F7ECAF
:103070001AF0750E1B6E000E1C6E020E1D6E020EF7
:103080001E6E740E1F6E100E206EE1EC18F07C6E3A
:103090007CC07CF020EF18F01200010E1A6E1706AB
:1030A00082EF18F014C010F015C011F01750800F07
:1030B000126E1DEC19F01A6E9FEF18F014C010F08C
:1030C00015C011F01750C00F126E1DEC19F01A6EDA
:1030D0009FEF18F014C010F015C011F01750940FA6
:1030E000126E1DEC19F01A6E9FEF18F014C010F05C
:1030F00015C011F01750D40F126E1DEC19F01A6E96
:103100009FEF18F01650186E196A1950000AD8B4BB
:103110008CEF18F09FEF18F01850010AD8B452EF56
:1031200018F0030AD8B45EEF18F0010AD8B46AEFB9
:1031300018F0070AD8B476EF18F09FEF18F01A507D
:103140001200000E156E000E166E10501110D8A44D
:10315000ACEF18F0AEEF18F0B2EF18F0000E146EEE
:10316000DFEF18F0000E156E155010240C6E000ED7
:1031700011200D6E8FEC19F0152A030E1564C3EFA4
:1031800018F0C5EF18F0B4EF18F0000E166E1650D8
:103190001024126E000E1120136E040E1224026E03
:1031A000000E1320036EB8EC11F0146E162A030EF5
:1031B0001664DDEF18F0DFEF18F0C7EF18F01450C9
:1031C00012001B501C10D8A4E8EF18F0EAEF18F01A
:1031D000EEEF18F0000E216E1BEF19F01BC014F07B
:1031E0001CC015F01DC016F01EC017F04DEC18F0F5
:1031F000216E0CEF19F01BC010F01CC011F01FC0A5
:10320000F6FF20C0F7FFF86A0800F5CF12F056EC81
:1032100019F0216E1F4A202A1FC0F6FF20C0F7FFB9
:10322000F86A0800F5500009D8A419EF19F01BEF4F
:1032300019F0FBEF18F02150120010501110D8A413
:1032400024EF19F026EF19F02AEF19F0000E136E93
:1032500054EF19F010C002F011C003F0000E046E1C
:10326000F0EC12F0136E10C00CF011C00DF012381B
:103270000F0B0E6EC5EC19F0136E10C00CF011C0E0
:103280000DF0DCEC1AF0136E10C00CF011C00DF054
:1032900012C00EF0C5EC19F0136E10C00CF011C086
:1032A0000DF0DCEC1AF0136E1350120010501110D8
:1032B000D8A45DEF19F05FEF19F063EF19F0000E7D
:1032C000136E8DEF19F010C002F011C003F0010E63
:1032D000046EF0EC12F0136E10C00CF011C00DF083
:1032E00012380F0B0E6EC5EC19F0136E10C00CF0F7
:1032F00011C00DF0DCEC1AF0136E10C00CF011C010
:103300000DF012C00EF0C5EC19F0136E10C00CF0E9
:1033100011C00DF0DCEC1AF0136E135012000C50BB
:103320000D10D8B496EF19F098EF19F0A9EF19F035
:103330000CC0D9FF0DC0DAFFDF30E832E832070BEE
:103340000E6E070E0E64A7EF19F0A9EF19F0ADEF9E
:1033500019F0000E0F6EC3EF19F00CC002F00DC093
:1033600003F0B8EC11F00F6E0CC002F00DC003F0CA
:103370000CC0D9FF0DC0DAFF000EDFBE010E046ED7
:10338000F0EC12F00F6E0F501200020E0C24026EC1
:10339000000E0D20036E0E50010B046EF0EC12F0C7
:1033A000030E0C24026E000E0D20036ED8900E301A
:1033B000010B046EF0EC12F0040E0C24026E000EF1
:1033C0000D20036E0E40E8423F0B010B046EF0EC43
:1033D00012F0050E0C24026E000E0D20036E0E3846
:1033E000E8461F0B010B046EF0EC12F00F6E0F504D
:1033F00012007A0EF66E350EF76E000EF86E00EEC5
:1034000080F010EE3EF00900F5CFEEFFE550E15000
:10341000FAE1EC0EF66E360EF76E000EF86E00EE68
:1034200067F010EE15F00900F5CFEEFFE550E15022
:10343000FAE100EEBEF0280EEE6AE806FDE100EECD
:1034400048F01F0EEE6AE806FDE17D907D920001D6
:103450005AEF12F045504610D8A431EF1AF033EF6E
:103460001AF037EF1AF0000E476E4FEF1AF0AB9ECE
:10347000948E948C45C039F046C03AF03FEC08F089
:1034800045C002F046C003F09DEC17F045C002F0C5
:1034900046C003F0D3EC16F0AB8E010E476E4750DA
:1034A0001200010E076E000E096E000E086E000E6F
:1034B000096E000E086E69EF1AF008500324D96EE9
:1034C00009500420DA6EDF5035EC1BF0076E084A15
:1034D000092A0550085C06500958D8A072EF1AF066
:1034E00074EF1AF05DEF1AF007501200750E1B6EA4
:1034F000000E1C6E020E1D6E070E1E6E6B0E1F6EF2
:10350000100E206EE1EC18F07C6E0B0E236E260E72
:10351000226E5E0EE82EFED7222EFCD7232EFAD77F
:10352000750E106E000E116E010E126E1DEC19F06C
:103530007C6E12001B501C10D8A4A1EF1AF0A3EF50
:103540001AF0A7EF1AF0000E206EBBEF1AF01BC0A6
:1035500014F01CC015F01DC016F01EC017F04DEC85
:1035600018F0206E1BC010F01CC011F01FC012F02C
:1035700056EC19F0206E20501200800F810F820F40
:10358000830F840F890F8A0F8B0F8C0F8D0F920F73
:10359000930F940F950F960F2F2F2F2F2F2F8025DE
:1035A0000000000003000300000000000000000015
:1035B0000109111961697179010E0C24026E000E66
:1035C0000D20036E010E046EF0EC12F0030EE82ED7
:1035D000FED700F0010E0C24026E000E0D20036ECB
:1035E000000E046EF0EC12F00E6E0E5012006950D8
:1035F000300F0A6E6850300F0B6E6750300F0C6E34
:10360000000E0D6E0A0E036E000E046E000E066EA6
:10361000040E056E51EC1AF07C6E1200750E146EDD
:10362000000E156E86EC13F07C6EB60E106E000E5A
:10363000116EA1EC18F07C6EA40E456E000E466E65
:103640002AEC1AF07C6E120000019E510A0DF35014
:103650009F25696EA0510A0DF350A125686EA251F5
:103660000A0DF350A325676E1200026EACA23BEF69
:103670001BF03DEF1BF036EF1BF09D8802C0ADFF45
:10368000010E1200016EF2900150D8A44AEF1BF017
:103690004CEF1BF04EEF1BF04EEF1BF01200016ED3
:1036A000F2900150D8A457EF1BF059EF1BF05BEFDD
:1036B0001BF05BEF1BF01200016EF2900150D8A4DA
:1036C00064EF1BF066EF1BF068EF1BF068EF1BF078
:1036D0001200016EF2900150D8A471EF1BF073EF4D
:1036E0001BF075EF1BF075EF1BF012002F2F2F68EA
:1036F0005A622A1A622A01010101030B131B232BB0
:013700002F99
:10370200A1924950B36E48C0B2FF12009E904B5036
:10371200CF6E4AC0CEFF1200F2944D50D76E4CC00D
:10372200D6FF12009E925FC0CCFF12009E9612003E
:10373200A1961200F0921200F0901200F292120082
:103742009D981200A19012009E9412009E9C12005D
:04375200120012004F
:020000040020DA
:08000000FFFFFFFFFFFFFFFF00
:020000040030CA
:0E000000FF020912FF8181FF0FC00FE00F40C9
:00000001FF
